:100000000C9462000C948A000C948A000C948A0070
:100010000C948A000C948A000C948A000C942A0395
:100020000C948A000C948A000C948A000C948A0028
:100030000C948A000C948A000C948A000C948A0018
:100040000C94E0020C948A000C94AE020C9488028A
:100050000C948A000C948A000C948A000C948A00F8
:100060000C948A000C948A000000000023002600F3
:10007000290000000008000201000003040700003E
:1000800000000000000000000000250028002B00F8
:1000900000000000240027002A00040404040404D3
:1000A0000404020202020202030303030303010227
:1000B00004081020408001020408102001020408F6
:1000C0001020480511241FBECFEFD8E0DEBFCDBF02
:1000D00011E0A0E0B1E0E8E4FBE002C005900D9281
:1000E000A033B107D9F721E0A0E3B1E001C01D9230
:1000F000A83EB207E1F710E0C2E6D0E004C02197C5
:10010000FE010E949705C136D107C9F70E949703E7
:100110000C94A2050C94000090E0FC01E255FF4F06
:100120002491FC01E656FF4F8491882399F090E0DA
:10013000880F991FFC01E057FF4FA591B491FC0176
:10014000EA57FF4F859194918FB7F894EC91E22B89
:10015000EC938FBF0895CF92DF92EF92FF920F93AF
:100160001F93CF93DF936C017A018B01C0E0D0E045
:10017000CE15DF0589F0D8016D918D01D601ED9185
:10018000FC910190F081E02DC6010995892B11F4B5
:100190007E0102C02196ECCFC701DF91CF911F9164
:1001A0000F91FF90EF90DF90CF900895089580E039
:1001B00090E00895FC01538D448D252F30E0842F6D
:1001C00090E0821B930B541710F0CF96089501977F
:1001D0000895FC01918D828D981761F0828DDF0169
:1001E000A80FB11D5D968C91928D9F5F9F73928F2A
:1001F00090E008958FEF9FEF0895FC01918D828D1F
:10020000981731F0828DE80FF11D858D90E00895EB
:100210008FEF9FEF0895FC01918D228D892F90E043
:10022000805C9F4F821B91098F73992708958BE4FF
:1002300091E00E940B0121E0892B09F420E0822F3C
:100240000895FC01848DDF01A80FB11DA35ABF4F93
:100250002C91848D90E001968F739927848FA689C5
:10026000B7892C93A089B1898C9180648C93938DEC
:10027000848D981306C00288F389E02D80818F7DDC
:1002800080830895EF92FF920F931F93CF93DF9394
:10029000EC0181E0888F9B8D8C8D981305C0E889D7
:1002A000F989808185FD24C0F62E0B8D10E00F5F4B
:1002B0001F4F0F731127E02E8C8DE8120CC00FB664
:1002C00007FCFACFE889F989808185FFF5CFCE0157
:1002D0000E942101F1CF8B8DFE01E80FF11DE35A41
:1002E000FF4FF0820B8FEA89FB898081806207C013
:1002F000EE89FF896083E889F98980818064808341
:1003000081E090E0DF91CF911F910F91FF90EF90EE
:100310000895CF93DF93EC01888D8823C9F0EA8993
:10032000FB89808185FD05C0A889B9898C9186FDEE
:100330000FC00FB607FCF5CF808185FFF2CFA889EB
:10034000B9898C9185FFEDCFCE010E942101E7CFC5
:10035000DF91CF91089580E090E0892B29F00E94F1
:10036000170181110C9400000895833081F028F466
:10037000813099F08230A1F008958730A9F088305B
:10038000B9F08430D1F4809180008F7D03C08091DA
:1003900080008F7780938000089584B58F7702C0A6
:1003A00084B58F7D84BD08958091B0008F7703C0A0
:1003B0008091B0008F7D8093B00008951F93CF93FC
:1003C000DF93282F30E0F901EE58FF4F8491F901B7
:1003D000E255FF4FD491F901E656FF4FC491CC236B
:1003E000C9F0162F81110E94B501EC2FF0E0EE0F3D
:1003F000FF1FEA57FF4FA591B4918FB7F8941111E1
:1004000005C09C91ED2FE095E92302C0EC91ED2B06
:10041000EC938FBFDF91CF911F9108953FB7F89470
:100420008091360190913701A0913801B091390146
:1004300026B5A89B05C02F3F19F00196A11DB11D3F
:100440003FBFBA2FA92F982F8827820F911DA11D7A
:10045000B11DBC01CD0142E0660F771F881F991FB7
:100460004A95D1F70895009769F0FC0101900020AA
:10047000E9F73197AF01481B590BBC018BE491E0C0
:100480000C94AB0080E090E008958F929F92AF9221
:10049000BF920F931F93CF93DF93CDB7DEB7A19792
:1004A0000FB6F894DEBF0FBECDBF19A2423008F4DC
:1004B0004AE08E010F5D1F4F842E912CA12CB12C90
:1004C000A50194010E947505E62FB901CA010150EA
:1004D0001109EA3014F4E05D01C0E95CD801EC9345
:1004E000232B242B252B61F7C8010E943302A196F0
:1004F0000FB6F894DEBF0FBECDBFDF91CF911F9135
:100500000F91BF90AF909F908F9008950E949D058E
:100510001F920F920FB60F9211242F933F934F9378
:100520005F936F937F938F939F93AF93BF93EF935B
:10053000FF938BE491E00E942101FF91EF91BF9125
:10054000AF919F918F917F916F915F914F913F916B
:100550002F910F900FBE0F901F9018951F920F9222
:100560000FB60F9211242F938F939F93EF93FF93C6
:10057000E0915B01F0915C018081E0916101F0917B
:10058000620182FD12C09081809164018F5F8F7340
:1005900020916501821751F0E0916401F0E0E55B84
:1005A000FE4F958F8093640101C08081FF91EF9190
:1005B0009F918F912F910F900FBE0F901F901895C4
:1005C0001F920F920FB60F9211242F933F938F9388
:1005D0009F93AF93BF938091320190913301A0918B
:1005E0003401B09135013091310123E0230F2D37D3
:1005F00020F40196A11DB11D05C026E8230F029627
:10060000A11DB11D209331018093320190933301DC
:10061000A0933401B0933501809136019091370158
:10062000A0913801B09139010196A11DB11D8093AF
:10063000360190933701A0933801B0933901BF91EF
:10064000AF919F918F913F912F910F900FBE0F907F
:100650001F9018951F920F920FB60F9211242F938F
:100660003F938F939F93AF93BF9320913A01309123
:100670003B0180913C0190913D0128173907D0F151
:100680008091490190914A018230910538F0880F9C
:10069000991F880F991F05970197F1F780918100A5
:1006A000887F80938100809170008D7F809370009F
:1006B00080916E00816080936E0081E080934001A4
:1006C00080913001209184003091850090E0A0E07D
:1006D000B0E0DC0199278827820F931FA11DB11D6F
:1006E0008093450190934601A0934701B093480140
:1006F0001092300180913A0190913B0101969093C4
:100700003B0180933A01B09B07C0809130018F5F1D
:100710008093300181E086BBBF91AF919F918F9113
:100720003F912F910F900FBE0F901F9018957894C6
:1007300084B5826084BD84B5816084BD85B58260E6
:1007400085BD85B5816085BD80916E008160809397
:100750006E00109281008091810082608093810000
:100760008091810081608093810080918000816010
:10077000809380008091B10084608093B10080916B
:10078000B00081608093B00080917A008460809393
:100790007A0080917A00826080937A0080917A005A
:1007A000816080937A0080917A00806880937A00DB
:1007B0001092C1008DE00E948C008AE00E948C00A3
:1007C00061E08AE00E94DE01E0915B01F0915C0152
:1007D00082E08083E0915701F09158011082E0910E
:1007E0005901F0915A0180E1808310926301E091F8
:1007F0005F01F091600186E08083E0915D01F091FE
:100800005E01808180618083E0915D01F0915E01F5
:10081000808188608083E0915D01F0915E0180813C
:1008200080688083E0915D01F0915E0180818F7D21
:10083000808382E191E00E94330284E291E00E9491
:100840003302CAE0D0E003EC10E024E6E22EF12C03
:10085000CC24C394D12C4FE7242E40E0342ED093E7
:100860004A01C093490180916E008E7F80936E0093
:10087000C8010197F1F7F0923D01E0923C018091AF
:10088000490190914A01892B21F4D0924A01C092EA
:100890004901109280001092810010928500109200
:1008A000840080918100816080938100809181002B
:1008B00082608093810080918100846080938100B8
:1008C0001092B0001092B1008091B10081608093CD
:1008D000B1008091B1008D7F8093B1008091B10013
:1008E00084608093B1008091B0008E7F8093B000CF
:1008F0008091B00082608093B0008091B000877FCB
:100900008093B0002CE72093B30010924001109226
:100910003B0110923A0182E083BD1092B200109226
:100920008500109284008091700082608093700036
:100930008091810087608093810050914501609192
:10094000460170914701E0914801309141012091A9
:100950004201909143018091440140914001411135
:1009600005C0352F262F972F8E2FF7CF30934101BB
:1009700020934201909343018093440140903E01B3
:1009800050903F01C201019690933F0180933E0138
:10099000052C000C6608770877FE14C0E0914B0127
:1009A000F0914C010190F081E02D6DE28BE491E03B
:1009B000099566277727CB01641975098609970978
:1009C0004AE003C04AE0C301B2010E94450287E247
:1009D00091E00E9433026091410170914201809147
:1009E0004301909144014AE00E94450284E291E073
:1009F0000E9433020E940E024B015C0194E1492ED9
:100A0000512C612C712C0E940E02DC01CB01881943
:100A10009909AA09BB09883E9340A105B10558F080
:100A2000E1E04E1A510861087108F8EE8F0EF3E00C
:100A30009F1EA11CB11C411451046104710419F7DB
:100A4000F1018491EBEBF0E07490E7EAF0E0649060
:100A50006620A1F081110E94B501E62DF0E0EE0FB5
:100A6000FF1FE859FF4FA591B4918C91782291E036
:100A700080E009F490E0692F782F02C060E070E018
:100A8000F1E06F278DE00E94DE010E94AB01E7CE0E
:100A9000EBE4F1E01382128288EE93E0A0E0B0E094
:100AA00084839583A683B78384E091E091838083D8
:100AB00085EC90E09587848784EC90E09787868723
:100AC00080EC90E0918B808B81EC90E0938B828B1B
:100AD00082EC90E0958B848B86EC90E0978B868BF4
:100AE000118E128E138E148E0895A1E21A2EAA1B57
:100AF000BB1BFD010DC0AA1FBB1FEE1FFF1FA217CE
:100B0000B307E407F50720F0A21BB30BE40BF50BCA
:100B1000661F771F881F991F1A9469F76095709553
:100B2000809590959B01AC01BD01CF010895EE0F1A
:100B3000FF1F0590F491E02D099481E090E0F89476
:080B40000C94A205F894FFCF0C
:100B4800000000004201AB00DA0089010B01E90056
:100B5800FD004672657175656E637920436F756E29
:100B6800746572000D0A002020467265713A2000F3
:00000001FF
