:100000000C9445010C946D010C946D010C946D01E0
:100010000C946D010C946D010C946D010C946D01A8
:100020000C946D010C946D010C946D010C946D0198
:100030000C946D010C946D010C946D010C946D0188
:100040000C94770C0C946D010C94F50D0C943C0EF3
:100050000C946D010C946D010C946D010C946D0168
:100060000C946D010C946D01485454502F312E3076
:1000700020353033204D792053657269617669638C
:1000800065200D0A436F6E74656E742D547970652A
:100090003A20746578742F68746D6C0D0A5265741B
:1000A00072792D41667465723A203630300D0A0D32
:1000B0000A3C68746D6C3E3C686561643E3C7469E2
:1000C000746C653E32656D626564646564726F620E
:1000D0006F74696373203C2F7469746C653E3C2FA8
:1000E000686561643E3C626F64793E3C68333E57AC
:1000F000656C636F6D6520746F2032656D62656439
:10010000646564726F626F746963733C2F68333E19
:100110003C703E3C656D3E54686520576F726C6460
:10012000206F6620494F54204465766963657320CB
:100130002E3C6272202F3E79697065656520202013
:10014000436F6E67726174732E2E2E2E3C2F656D79
:100150003E3C2F703E3C2F626F64793E3C2F6874AA
:100160006D6C3E000001080006040001450000829D
:10017000000040002000504F535420244620485493
:1001800054502F312E300D0A486F73743A20244694
:100190000D0A244624534163636570743A202A2F64
:1001A0002A0D0A436F6E74656E742D4C656E67740C
:1001B000683A2024440D0A436F6E74656E742D54A2
:1001C0007970653A206170706C69636174696F6EF3
:1001D0002F782D7777772D666F726D2D75726C6520
:1001E0006E636F6465640D0A0D0A2453004745541D
:1001F000202446245320485454502F312E300D0AC9
:10020000486F73743A2024460D0A24460D0A0D0ADD
:10021000004163636570743A20746578742F687464
:100220006D6C00E30004FA00010000000100000012
:1002300000240027002A0000000000250028002BD1
:100240000000000000230026002900040404040428
:100250000404040202020202020303030303030173
:10026000020408102040800102040810200102044A
:10027000081020000000070002010000030406002F
:100280000000000000000000A20F11241FBECFEFED
:10029000D8E0DEBFCDBF11E0A0E0B1E0E6E9F2E2D8
:1002A00002C005900D92AE38B107D9F714E0AEE860
:1002B000B1E001C01D92A73CB107E1F712E0CAE826
:1002C000D2E004C02297FE010E944511C838D10730
:1002D000C9F70E94F20F0C9449110C940000FB0125
:1002E000DC0102C005900D9241505040D8F70895AE
:1002F000FB01DC0104C08D910190801921F4415073
:100300005040C8F7881B990B08950E9439050E9438
:100310006B09892B61F084EC91E068E670E04CEFAA
:1003200050E00E946F018BEF90E00E9487080895D3
:1003300088EA94E040E855E260E070E00E94770EC1
:1003400088EA94E060E071E00E94EF1084EF91E0B1
:100350006FE471E048E00E94C606882331F488EA21
:1003600094E06CE071E00E94EF100E942F0488235B
:1003700031F488EA94E061E371E00E94EF108DE3CC
:1003800091E061EC73E00E944C0C83E491E069EC35
:1003900073E00E944C0C89E491E061ED73E00E94EF
:1003A0004C0C0895DF93CF9300D000D000D0CDB790
:1003B000DEB7DE011196E2E7F1E086E001900D92F2
:1003C0008150E1F786E191E0EEE8F1E0DF019C0188
:1003D0001D9221503040E1F780918203833019F45F
:1003E0006DEC73E003C0BE016F5F7F4F84E490E06B
:1003F00043E450E00E94B10780918203833039F0DA
:100400008EE891E0BE016F5F7F4F0E94630C81E038
:100410008093B8018093B90186E08093BA018091FE
:100420008F0390919003A0919103B09192038093D8
:10043000BC019093BD01A093BE01B093BF01809118
:100440008203833039F488EB91E00C9661EC73E021
:100450000E946B0C84ED91E06BEB73E00E94630CE7
:10046000A4EAB2E0E6E6F1E002C081918D9331E0CA
:10047000EC36F307D1F790918203992311F083E0D2
:1004800001C081E08093AA028DE38093AB0287E0F4
:100490008093AC0281E08093AD02AEEAB2E0EBEB78
:1004A000F3E002C081918D9383E0E13CF807D1F73E
:1004B0008CE08093B4028AE08093B502E5E5F1E038
:1004C000A6EBB2E002C081918D9321E0EF35F207F7
:1004D000D1F720EC32E030939403209393039130D2
:1004E00069F582E38093C00284E08093C102D90160
:1004F0001296E1ECF3E002C081918D9333E0E53C8C
:10050000F307D1F786E38093C60284E08093C702A5
:1005100088EC92E09093940380939303DC01EDECDC
:10052000F3E002C081918D9383E0E13DF807D1F7BC
:100530008CEC92E090939403809393032091930327
:1005400030919403D901E0E6F1E002C081918D93EE
:1005500081E0E636F807D1F7C90106969093940337
:1005600080939303885B91400E943C0926960FB6C6
:10057000F894DEBF0FBECDBFCF91DF910895DF921B
:10058000EF92FF920F931F93CF93DF938C01809193
:100590008203823009F4F7C0833030F4882351F1AC
:1005A000813009F054C14AC0833021F0843009F011
:1005B0004EC1E9C00E94BF0C20918703309188038F
:1005C0004091890350918A03E0908303F090840363
:1005D00000918503109186032E0D3F1D401F511F72
:1005E000621773078407950708F431C10E94D2018E
:1005F00084E017C00E94BF0C60938F037093900338
:1006000080939103909392031092C1031092C203BE
:100610001092C3031092C4030E94D2010E94C90425
:1006200081E0809382030E94BF0C60938B037093E0
:100630008C0380938D0390938E0309C106341105BA
:1006400008F4F0C08091B101833409F0EBC020912F
:10065000BC013091BD014091BE015091BF0180911C
:100660008F0390919003A0919103B091920328176A
:1006700039074A075B0709F0D5C0C8EAD2E0FE0196
:10068000A80142575E4FDF01119691819D012F5FB6
:100690003F4F8081853321F411968C91823039F05F
:1006A000F901E90FF11DE417F50768F3BBC081EC10
:1006B00093E068EC71E00E946B0C5EE8E52E51E07F
:1006C000F52EE00EF11EFE013196D9808F010F5FED
:1006D0001F4F88818630A9F0873030F4813059F07F
:1006E000833009F045C00AC08633E9F18A3361F0EE
:1006F0008333F1F509C085EC93E037C089EC93E0D2
:1007000034C081ED93E031C0618170E080E090E021
:10071000982F872F762F6627F8012181620F711D90
:10072000811D911D982F872F762F66272281620FBA
:10073000711D811D911D982F872F762F662723818C
:10074000620F711D811D911D28EE33E040E050E0E5
:100750000E9402116093870370938803809389033A
:1007600090938A0305C08DEC93E0B8010E946B0C56
:10077000E801CD0DD11DCE15DF0508F4A4CF0E94F0
:10078000D20182E04ECF0634110508F44BC08091AF
:10079000B101833409F046C02091BC013091BD0104
:1007A0004091BE015091BF0180918F0390919003C1
:1007B000A0919103B0919203281739074A075B076C
:1007C00089F5E8EAF2E0A80142575E4FDF01119691
:1007D00091819D012F5F3F4F8081853321F41196D8
:1007E0008C91853039F0F901E90FF11DE417F50717
:1007F00068F318C00E94C4040E94BF0C6093830376
:100800007093840380938503909386038091C9033A
:10081000882321F089EC93E00E94170883E08093FD
:10082000820315C00E94BF0C20918B0330918C0372
:1008300040918D0350918E03205F384D4F4F5F4F95
:10084000261737074807590710F410928203DF91E3
:10085000CF911F910F91FF90EF90DF900895CF936C
:10086000DF9381E08093D9039091C003892F829513
:100870008F70805D80935D019F70905D90935E01AD
:10088000109282030E94BF0CEB0104C00E94390544
:100890000E94BF0280918203833061F00E94BF0CEE
:1008A0006C1B7D0B60567A4E28F40E94FA04882354
:1008B00089F3ECCF90E080918203833009F491E0DA
:1008C000892FDF91CF9108958091970361E00E9475
:1008D000A00D78940895FF920F931F93082F162F61
:1008E000F42EF8948091970360E00E94A00D1F7190
:1008F000102B1EBD0DB407FEFDCFFEBC0DB407FED0
:10090000FDCF0E9464041F910F91FF9008951F93E3
:10091000182F282F30E0207630708091980390E0D7
:100920002817390799F080EA6FE143E00E946B04D1
:10093000412F40764093980350E085E055954795C8
:100940008A95E1F780E86FE10E946B041F9108959A
:100950000F931F93182F062F0E94870480E4612FA6
:10096000402F0E946B041F910F9108950F931F93C6
:10097000182F072F0E94A804812F8F5F602F0E94DD
:10098000A8041F910F91089588E360EB0E94A804CA
:10099000089588E361EB0E94A80408950F931F93C4
:1009A000182F062FF8948091970360E00E94A00D05
:1009B000802F8F71812B8EBD0DB407FEFDCF1EBC25
:1009C0000DB407FEFDCF07FF04C01EBC0DB407FE2B
:1009D000FDCF1EB50E946404812F1F910F910895D1
:1009E0001F93182F0E94870480E0612F0E94CE047D
:1009F0001F91089584ED61E10E94A80482ED61E0F9
:100A00000E94A8048AEE0E94F00480FDFBCF82EDD4
:100A100060E00E94A80489ED0E94F00490E09695A1
:100A2000879596958795817008950F931F93CF931F
:100A3000DF93EC018B01F8948091970360E00E94B2
:100A4000A00D8AE38EBD0DB407FEFDCF09C01EBC0C
:100A50000DB407FEFDCF8EB5F80181938F0121976C
:100A60002097A9F70E946404DF91CF911F910F9105
:100A700008950F931F93DF93CF9300D000D000D041
:100A8000CDB7DEB789E30E94F004882319F400E0B3
:100A900010E048C06091990370919A0380E00E9431
:100AA000B60486E090E0BE016F5F7F4F0E9415059F
:100AB00089819A8190939A03809399032B813C8139
:100AC000E0919503F09196038D8187FD03C000E0CE
:100AD00010E00EC0245030408F010150104020170C
:100AE000310708F48901C8016EE871E00E9415051C
:100AF000F801E257FE4F10826091990370919A03BA
:100B00008CE06130780724F08CE06FEF7BE003C06D
:100B1000615070408CE00E94B60480E86EE140E4D1
:100B20000E946B04C80126960FB6F894DEBF0FBE74
:100B3000CDBFCF91DF911F910F9108950F931F9318
:100B4000CF93DF938C01EB01F8948091970360E0E1
:100B50000E94A00D8AE78EBD0DB407FEFDCF08C030
:100B600088818EBD0DB407FEFDCF21960150104047
:100B700001151105A9F70E946404DF91CF911F911F
:100B80000F910895CF93DF93EC010FC08CE10E9489
:100B9000F00481FF0AC080E86FE140E80E946B0426
:100BA00080EA6FE140E80E946B0480E06FE10E9400
:100BB000CE0483FDEBCF82E060E07CE00E94B604CF
:100BC000BE016050744F86E00E94B6048AE760E080
:100BD00040E00E946B04CE016EE871E00E949E0529
:100BE00080E86FE148E00E946B04DF91CF910895A7
:100BF0008AE061E00E94610D8AE061E00E94A00D40
:100C00008BE061E00E94610D8DE061E00E94610D6A
:100C10008CE060E00E94610D8BE061E00E94A00D1D
:100C20008BE060E00E94A00D8DE060E00E94A00DCE
:100C300080E58CBD8DB581608DBD08951F93CF93E8
:100C4000DF93EB01142F90939603809395030CB4DC
:100C500006FC02C00E94F80510939703812F61E003
:100C60000E94610D0E9464048FEF60E04FEF0E94CC
:100C70006B0462E070E080E090E00E94CD0C80E0C8
:100C80006DE10E94CE048823D1F310929A03109252
:100C9000990388E060E070E00E94B6048CE060E0B8
:100CA00070E00E94B6048AE06FEF7BE00E94B60419
:100CB00084E060E07CE00E94B60486E06FEF71E1C2
:100CC0000E94B6040E94C90488E26FE370E30E94A8
:100CD000B60480E369EF77EF0E94B60480EC6DE024
:100CE0000E94A80481EC60E00E94A80480E862EC05
:100CF00042E30E946B0486EC62E17CE00E94B60451
:100D000084EC62E10E94A8048AEC6CED75E00E941C
:100D1000B60484EE68810E94A80485EE69810E9471
:100D2000A80482EE6A810E94A80483EE6B810E946F
:100D3000A80480EE6C810E94A80481EE6D810E945F
:100D4000A80484ED60E10E94A80486ED60E071E0F3
:100D50000E94B6048AEE0E94F00480FDFBCF8FE172
:100D60000E94870480E86BE140EC0E946B0480E8FD
:100D70006FE144E00E946B0482E70E94F004863039
:100D800008F08F5FDF91CF911F910895AF92BF92CE
:100D9000CF92DF92FF920F931F93CF93DF938C013B
:100DA000EB01F42E1092D90338E341E050E060E00B
:100DB00070E018C0832F90E0FC01B3E0F595E79553
:100DC000BA95E1F7E556FC4F877090705A016B01B8
:100DD00004C0AA0CBB1CCC1CDD1C8A95D2F7208158
:100DE0002A292083315031F78BEB93E0BE010E941A
:100DF000630CC8016BEB73E04F2D0E941E06DF9160
:100E0000CF911F910F91FF90DF90CF90BF90AF9047
:100E10000895DF92EF92FF920F931F93CF93DF938A
:100E2000D82E862FBA01213041F4675F7F4F9B0196
:100E300040E050E0695070400EC0223029F020E0C0
:100E400030E040E050E007C0625070409B0140E05D
:100E500050E06E5F7F4FE82EFF248EE891E0E80EB1
:100E6000F91E8B01E7010FC0F881E0E0898190E075
:100E70008E2B9F2BA0E0B0E0280F391F4A1F5B1F6D
:100E80002296025010400230110570F7CB018E7F80
:100E9000D701A80FB91F6817790779F08C9190E0F6
:100EA000A0E0B0E0BA2FA92F982F882702C040E019
:100EB00050E0280F391F4A1F5B1FCA01AA27BB2712
:100EC0000097A105B10599F7C90180959095ED2D81
:100ED000F0E0E257FE4F90838183DF91CF911F9125
:100EE0000F91FF90EF90DF9008951092A60110925D
:100EF000A70180E48093A2011092A3018093A40132
:100F000088E16EE044E150E020E00E940907089586
:100F10000F931F93BC010EE811E0C8010E94630CFF
:100F2000C80106966BEB73E00E94630C1F910F9152
:100F30000895EF92FF920F931F937B010E94880701
:100F40000CEA11E0C801B7010E946B0CC8010497BC
:100F500061EC73E00E946B0C1F910F91FF90EF907A
:100F60000895EF92FF920F931F93CF93DF937C012D
:100F7000EB018A0186EE93E00E9499078881807FC9
:100F8000803E49F088819981AA81BB818F5F9F4F04
:100F9000AF4FBF4F31F48EE891E068E771E00E94F7
:100FA000630C88E080939A0110929B018CE991E098
:100FB0006CE671E049E050E00E946F0110929E01E2
:100FC00081E18093A5011093B2010093B301F092E7
:100FD000B001E092B1011092B4011092B6011092EA
:100FE000B701DF91CF911F910F91FF90EF9008957E
:100FF000EF92FF920F931F9304E911E0C8010E9442
:10100000880774E1E72EF12CE00EF11EC801489626
:10101000B7010E946B0CC70161EC73E00E946B0C7E
:101020000E9475071F910F91FF90EF900895BC01EA
:1010300081E08093DB0389EC93E00E946B0C0895C0
:101040000F931F938C01889690939E0180939F012C
:101050000E9475071092C0011092C101045E1F4FDB
:1010600082E36AE1A80122E00E940907C8014A96CA
:101070000E94C2051F910F910895CF93DF939C01A9
:10108000862F80618093BD01643029F021153105E0
:1010900011F421E030E09091B2018091B001809391
:1010A000B2019093B0019091B3018091B10180930E
:1010B000B3019093B101C7EBD1E08881A901480F3A
:1010C000511D2C814C832883252F3327219751E0F4
:1010D000C33BD50791F71D861E8680E58987109250
:1010E0009E0188E280939F010E94F80784E08B872D
:1010F0001C8682E36AE14CE150E022E00E9409078D
:1011000086E390E00E94C205DF91CF9108950F938E
:101110001F938C018091EC039091ED0360E00E949D
:101120003D0889E18093BD01C8010E9420081F91FC
:101130000F910895E82FA0919E01B0919F01F09129
:10114000BC014091B20150E0292F30E04217530713
:1011500009F08EC08091B3018E1709F089C080918B
:10116000BD01E82F81FF4EC010929E018CE280935A
:101170009F010E94F80782E18093BD019091B20126
:101180008091B0018093B2019093B0019091B3012E
:101190008091B1018093B3019093B101E7EBF1E04D
:1011A00021E030E08081A901480F511D4483108265
:1011B000252F3327319751E0E33BF50799F7158643
:1011C00016861182128280917101838314828D5F51
:1011D0008093710182E0818B84E0828B95E0938B18
:1011E000148A80E68187938788E7848782E36AE1AF
:1011F00040E250E022E00E9409078AE390E00E946A
:10120000C20536C084FF34C04F2F50E084E05595AE
:1012100047958A95E1F79A2F80E02B2F30E0282B15
:10122000392BCA01880F991F880F991F281B390B6A
:101230002451304037FF02C020E030E03093ED030E
:101240002093EC03232B69F09A01220F331F220F06
:10125000331F2E5D3F4F685070406217730740F098
:1012600009C0E0FF05C080E090E060E00E943D081A
:1012700020E030E0C90108950F931F93DF93CF93CF
:101280000F92CDB7DEB78C01045E1F4F10939E0105
:101290000C511040802F845E80939F0189830E94AF
:1012A0007507085F1F4F1093B401898184518093A3
:1012B000B501085F1F4F88E26AE1A80121E00E94A2
:1012C0000907C8014A960E94C2050F90CF91DF918D
:1012D0001F910F910895DF92EF92FF920F931F934A
:1012E000CF93DF93EC018091D903882319F0CE01CD
:1012F0000E94BF02209709F0BFC08091DB03857078
:10130000F1F180916E0190916F01892BC1F50E94DE
:10131000FA048823A1F188E791E00E94880788E019
:1013200080939A01A6E0FA2EF0929B018CE991E05D
:1013300064E671E048E050E00E946F010EEA11E0BF
:10134000D8011D92FA94E9F7C8010A976BEB73E094
:101350000E94630CC801069669EC73E00E946B0C56
:10136000C801049761EC73E00E946B0C8091DB0371
:1013700088608093DB038AE290E00E94C20580913E
:101380006E0190916F01019690936F0180936E01B1
:101390008091DC03813009F002C28091DB0381FF80
:1013A000FEC102E00093DC03809170018F5F8093A7
:1013B00070018F711091DD031295110F107E182BA3
:1013C000E090DE03D090DF0386EE93E065ED73E0FE
:1013D0000E949907F8E0FF2EF0929A0110929B016B
:1013E0008CE991E06CE671E049E050E00E946F0109
:1013F0008CE280939F0186E08093A5010E9475078F
:10140000E092B201D092B3018BE08093B0011093CF
:10141000B101E4EBF1E0DF011D92FA94E9F780916C
:1014200071018093B6018D5F8093710180E6809396
:10143000BC010093BD0183E08093BE011092BF0107
:101440001092C0011092C1011092C2011092C3010A
:101450000093C40184E08093C5010093C60186E235
:101460008093C70182E36AE140E250E022E00E94FB
:1014700009078AE390E0AEC08091AC018F3E79F419
:101480008091AD018F3F59F48091AE018F3F39F4C7
:101490008091AF018A3F19F42AE230E082C1C9325B
:1014A000D10508F47CC110919A01183009F082C16D
:1014B00080919B01863009F07DC184EB91E061EC65
:1014C00073E044E050E00E947801009709F072C197
:1014D0008091A301813029F584E991E00E94880779
:1014E0001092A20182E08093A3018EEA91E064EA67
:1014F00071E00E94630C84EA91E06BEB73E00E9460
:10150000630C84EB91E06AEA71E00E946B0C8AEA5A
:1015100091E061EC73E00E946B0C8AE290E00E9423
:10152000C2058091DB0383FF3AC11091A301123001
:1015300009F035C18AEA91E069EC73E044E050E0DB
:101540000E947801009709F02AC186EE93E064EAD0
:1015500071E00E94630C1093DB0321C1183009F085
:101560001EC180919B01882309F019C180919C01C3
:10157000853409F014C18CEA91E061EC73E044E039
:1015800050E00E947801009709F009C18091A501FF
:10159000813019F58091B0018830F9F4E091E003D1
:1015A000F091E103309719F088EA91E009950E94E3
:1015B000F8071092B0018091B201883F28F0809125
:1015C000B3018F5F8093B3018091B201885F8093F4
:1015D000B201CE010E94C205E2C00E94DF0B882347
:1015E00051F08091A501813131F4CE010E94E40BCC
:1015F000882309F0D4C0C633D10528F48091A50111
:10160000863009F0CCC08091B2018B3009F0BEC0A9
:1016100088EA91E065ED73E044E050E00E947801D3
:10162000009709F0BCC08091BD01382F82FF13C024
:10163000E091E203F091E303309759F08091B30118
:1016400082958695877063E040E050E020E030E0CE
:10165000099585E090C090919E0180E020919F01C6
:10166000022F10E0082B192B8091BC01482F50E06D
:10167000E4E055954795EA95E1F7CA01880F991F6F
:10168000880F991F081B190B0451104017FF02C047
:1016900000E010E08091DC03823079F531FF21C059
:1016A00034FF1FC080E090E060E00E943D0888E1C8
:1016B0008093BD01E091E403F091E503309719F4C4
:1016C00020E030E007C08091B10182958695877057
:1016D00009959C0183E08093DC03C9010E942008E6
:1016E0005EC081E08093DC0334FF03C080E090E0C3
:1016F00002C0C801019664E046C0833081F501153F
:10170000110579F1E091E203F091E303309749F19B
:10171000440F551F440F551FCE0108974E5D5F4F74
:101720008417950708F4AC01C801840F951FC817EA
:10173000D90710F0980103C09E01241B350B80913E
:10174000B30182958695877060E009958091DA03F0
:10175000882319F0C80168E016C0C80108C08530A8
:10176000F1F030FF0BC08330D1F0C801019669E081
:101770000E943D0886E08093DC0311C0011511052D
:1017800071F0C80160E00E943D0809C080916C01C1
:1017900090916D01BE010E949A089C0102C020E058
:1017A00030E0C901DF91CF911F910F91FF90EF9031
:1017B000DF900895CA32D10508F0D0CEF0CF8091E5
:1017C0001604811181E00895CF92DF92EF92FF928B
:1017D0000F931F93CF93DF93CEEED3E030E0CC2472
:1017E000DD2429C02A814B818091B20190E0042F31
:1017F00010E080179107D9F49091B3019217B9F4D2
:101800008C818823A1F02091B50130E02850304030
:10181000F090B401EE242E0D3F1DE881F981892F4F
:10182000942F68EA71E048EB51E0099531E00894A3
:10183000C11CD11C25968091160490E0C816D906CB
:101840008CF2832FDF91CF911F910F91FF90EF903A
:10185000DF90CF9008950F931F93CF93DF938C0168
:10186000C0E0D0E0F801EC0FFD1F88EA94E0608151
:101870004AE050E00E94DA10C33029F088EA94E090
:101880006EE20E942B102196C430D10559F7DF91EA
:10189000CF911F910F910895EF92FF920F931F9395
:1018A0009C017B0108EA14E0C801B9010E94EC1018
:1018B000C7010E942B0CC8010E9433101F910F9189
:1018C000FF90EF900895DC01FB0186E001900D92FE
:1018D0008150E1F708959C01FB0180819181A281F3
:1018E000B381F90180839183A283B38308951F920A
:1018F0000F920FB60F9211242F933F938F939F93C4
:10190000AF93BF9380911B0490911C04A0911D0480
:10191000B0911E0430911F040196A11DB11D232F0B
:101920002D5F2D3720F02D570196A11DB11D20935D
:101930001F0480931B0490931C04A0931D04B09378
:101940001E048091170490911804A0911904B0917D
:101950001A040196A11DB11D8093170490931804D9
:10196000A0931904B0931A04BF91AF919F918F91E6
:101970003F912F910F900FBE0F901F9018958FB72A
:10198000F89420911B0430911C0440911D04509147
:101990001E048FBFB901CA0108959B01AC017FB736
:1019A000F8948091170490911804A0911904B091B3
:1019B0001A0466B5A89B05C06F3F19F00196A11DDA
:1019C000B11D7FBFBA2FA92F982F8827860F911D91
:1019D000A11DB11D62E0880F991FAA1FBB1F6A9548
:1019E000D1F7BC012DC0FFB7F894809117049091F6
:1019F0001804A0911904B0911A04E6B5A89B05C07B
:101A0000EF3F19F00196A11DB11DFFBFBA2FA92FFD
:101A1000982F88278E0F911DA11DB11DE2E0880F20
:101A2000991FAA1FBB1FEA95D1F7861B970B885EEB
:101A30009340C8F2215030404040504068517C4FA4
:101A4000211531054105510571F60895789484B545
:101A5000826084BD84B5816084BD85B5826085BDAA
:101A600085B5816085BDEEE6F0E080818160808390
:101A7000E1E8F0E010828081826080838081816073
:101A80008083E0E8F0E0808181608083E1EBF0E03A
:101A9000808184608083E0EBF0E0808181608083DE
:101AA000EAE7F0E0808184608083808182608083C7
:101AB0008081816080838081806880831092C100F2
:101AC0000895CF93DF93482F50E0CA01815A9D4F6C
:101AD000FC013491455B5D4FFA018491882369F1E3
:101AE00090E0880F991FFC01E35DFD4FA591B49133
:101AF000FC01E95CFD4FC591D491662351F42FB7E9
:101B0000F8948C91932F909589238C9388818923C5
:101B10000BC0623061F42FB7F8948C91932F90959D
:101B200089238C938881832B88832FBF06C09FB71E
:101B3000F8948C91832B8C939FBFDF91CF91089564
:101B4000482F50E0CA018D589D4FFC012491CA01D5
:101B5000815A9D4FFC019491455B5D4FFA01349190
:101B6000332309F440C0222351F1233071F0243093
:101B700028F42130A1F0223011F514C02630B1F044
:101B80002730C1F02430D9F404C0809180008F77D1
:101B900003C0809180008F7D8093800010C084B549
:101BA0008F7702C084B58F7D84BD09C08091B0005D
:101BB0008F7703C08091B0008F7D8093B000E32FBA
:101BC000F0E0EE0FFF1FE95CFD4FA591B4912FB738
:101BD000F894662321F48C919095892302C08C910E
:101BE000892B8C932FBF089508951F920F920FB6E3
:101BF0000F9211242F933F934F938F939F93EF93C3
:101C0000FF934091C60020916004309161042F5FE2
:101C10003F4F2F73307080916204909163042817B6
:101C2000390759F0E0916004F0916104E05EFB4FE8
:101C300040833093610420936004FF91EF919F9162
:101C40008F914F913F912F910F900FBE0F901F904A
:101C50001895E091B404F091B504E05CFF4F8191D8
:101C6000919120813181821B930B8F739070892B0E
:101C700011F00E94F40D08951F920F920FB60F926B
:101C800011242F933F938F939F93EF93FF93209172
:101C9000A4043091A5048091A6049091A70428176C
:101CA000390731F48091C1008F7D8093C10014C049
:101CB000E091A604F091A704EC59FB4F208180919C
:101CC000A6049091A70401968F7390709093A70437
:101CD0008093A6042093C600FF91EF919F918F916E
:101CE0003F912F910F900FBE0F901F901895AF92BC
:101CF000BF92DF92EF92FF920F931F93CF93DF93E8
:101D0000EC017A018B01DD24403081EE580780E040
:101D1000680780E0780711F0DD24D39491E0A92EC4
:101D2000B12CEC89FD89DD2069F0C5010E8C02C063
:101D3000880F991F0A94E2F7808360E079E08DE3D1
:101D400090E005C0108260E874E88EE190E0A801A0
:101D500097010E942111215030404040504056953B
:101D600047953795279580E12030380720F0DD2012
:101D700011F0DD24D6CFE889F9893083EA89FB891F
:101D80002083EE89FF89408121E030E0C9010A8C7F
:101D900002C0880F991F0A94E2F7482B4083EE890E
:101DA000FF894081C9010B8C02C0880F991F0A94DA
:101DB000E2F7482B4083EE89FF894081C9010C8CF2
:101DC00002C0880F991F0A94E2F7482B4083EE89DE
:101DD000FF8980810D8C02C0220F331F0A94E2F725
:101DE000209528232083DF91CF911F910F91FF90A1
:101DF000EF90DF90BF90AF900895DC011C96ED91BD
:101E0000FC911D97E05CFF4F219131918081918180
:101E1000281B390B2F733070C9010895DC011C9603
:101E2000ED91FC911D97E05CFF4F20813181E054E2
:101E3000F040DF01AE5BBF4F8D919C911197281749
:101E4000390719F42FEF3FEF07C08D919C91E80FF0
:101E5000F91F8081282F30E0C9010895DC011C960C
:101E6000ED91FC911D97E05CFF4F20813181E054A2
:101E7000F040DF01AE5BBF4F8D919C911197281709
:101E8000390719F42FEF3FEF10C08D919C911197F6
:101E9000E80FF91F20818D919C91119701968F7306
:101EA000907011969C938E9330E0C9010895FC01C7
:101EB00086859785DC01A05CBF4FFC01EE5BFF4F80
:101EC0002D913C9111978081918128173907C1F795
:101ED0000895CF93DF93EC01EE85FF85E05CFF4F23
:101EE00020813181E054F0402F5F3F4F2F733070DD
:101EF000DF01AE5BBF4F8D919C9111972817390779
:101F0000D1F3E05CFF4F80819181E054F040E80F15
:101F1000F91F6083EE85FF85E05CFF4F31832083EE
:101F2000EE89FF89208181E090E00D8C02C0880F4E
:101F3000991F0A94E2F7282B208381E090E0DF913B
:101F4000CF9108951092AB041092AA0488EE93E00A
:101F5000A0E0B0E08093AC049093AD04A093AE04F5
:101F6000B093AF0482E891E09093A9048093A80411
:101F700080E294E09093B5048093B40484E694E006
:101F80009093B7048093B60485EC90E09093B904E5
:101F90008093B80484EC90E09093BB048093BA04DF
:101FA00080EC90E09093BD048093BC0481EC90E0C1
:101FB0009093BF048093BE0486EC90E09093C1049C
:101FC0008093C00484E08093C20483E08093C304C0
:101FD00087E08093C40485E08093C50481E080930A
:101FE000C6040895CF93DF930E94260D0E949801A6
:101FF000C9E2DEE00E9485012097E1F30E94290EEC
:10200000F9CFCF92DF92EF92FF920F931F93CF936E
:10201000DF937C016B018A01C0E0D0E00FC0D601E4
:102020006D916D01D701ED91FC910190F081E02D52
:10203000C7010995C80FD91F01501040011511059E
:1020400071F7CE01DF91CF911F910F91FF90EF902B
:10205000DF90CF900895DC01ED91FC910190F0812B
:10206000E02D09950895EF92FF920F931F938C0135
:10207000DC01ED91FC910190F081E02D6DE009957E
:102080007C01D801ED91FC910190F081E02DC80117
:102090006AE009959C012E0D3F1DC9011F910F910A
:1020A000FF90EF900895CF93DF93DB010D90002018
:1020B000E9F71197A61BB70BEC01E881F9810280C3
:1020C000F381E02DAD010995DF91CF9108954F92F5
:1020D0005F927F928F929F92AF92BF92CF92DF9248
:1020E000EF92FF920F931F93DF93CF93CDB7DEB79D
:1020F000A1970FB6F894DEBF0FBECDBF2C01742E92
:10210000CB01223008F42AE019A231E2C32ED12CEF
:10211000CC0EDD1E822E9924AA24BB24672D752F98
:10212000A50194010E94211179018A01C801B7011A
:10213000A50194010E940211472D461B0894C10875
:10214000D1084A3014F4405D01C0495CF601408377
:10215000E114F1040105110521F07E2C5F2DC80169
:10216000DDCFC201B6010E945310A1960FB6F894BC
:10217000DEBF0FBECDBFCF91DF911F910F91FF90BA
:10218000EF90DF90CF90BF90AF909F908F907F9017
:102190005F904F900895DC012115310541F4ED91D8
:1021A000FC910190F081E02D642F099508950E9423
:1021B00067100895EF92FF920F931F939A01E62EF6
:1021C000FF2400E010E0B801A7010E94CB101F918E
:1021D0000F91FF90EF9008950E9453100895EF9291
:1021E000FF920F931F937C010E9453108C01C70133
:1021F0000E943310080F191FC8011F910F91FF9003
:10220000EF900895629FD001739FF001829FE00DCF
:10221000F11D649FE00DF11D929FF00D839FF00D65
:10222000749FF00D659FF00D9927729FB00DE11D11
:10223000F91F639FB00DE11DF91FBD01CF011124EE
:102240000895A1E21A2EAA1BBB1BFD010DC0AA1FF7
:10225000BB1FEE1FFF1FA217B307E407F50720F00F
:10226000A21BB30BE40BF50B661F771F881F991F8A
:102270001A9469F760957095809590959B01AC01D3
:10228000BD01CF010895EE0FFF1F0590F491E02DE1
:062290000994F894FFCF51
:102296000A5B6261636B536F6F6E5D004661696CCA
:1022A600656420746F206163636573732045746889
:1022B60065726E657420636F6E74726F6C6C657296
:1022C6000044484350206661696C65640049503A91
:1022D60020200047573A202000444E533A200074ED
:1022E60069692D303141726475696E6F2D30300029
:1022F6003703010306FF6382536335015000010073
:10230600010AFFFFFFFFFFFFFFFFFFFFFFFF0000C8
:0E2316000000690F0110FD0E2E0F0E0F570F65
:00000001FF
