:100000000C94DB000C9403010C9403010C94030189
:100010000C9403010C9403010C9403010C94030150
:100020000C9403010C9403010C9403010C94030140
:100030000C9403010C9403010C9403010C94030130
:100040000C9453100C9403010C94D1110C941812BD
:100050000C9403010C9403010C9403010C94030110
:100060000C9403010C9403017777772E646576690D
:1000700063656875622E6E6574002F696F2F323963
:10008000362F6163747561746F722F3133342F00B2
:100090000001080006040001450000820000400045
:1000A0002000504F535420244620485454502F31A0
:1000B0002E300D0A486F73743A2024460D0A2446E8
:1000C00024534163636570743A202A2F2A0D0A4332
:1000D0006F6E74656E742D4C656E6774683A20247B
:1000E000440D0A436F6E74656E742D547970653AD1
:1000F000206170706C69636174696F6E2F782D7701
:1001000077772D666F726D2D75726C656E636F6497
:1001100065640D0A0D0A24530047455420244624E3
:100120005320485454502F312E300D0A486F7374A9
:100130003A2024460D0A24460D0A0D0A0041636345
:100140006570743A20746578742F68746D6C00E380
:100150000004FA0001000000010000000024002754
:10016000002A0000000000250028002B00000000ED
:1001700000230026002900040404040404040402EB
:100180000202020202030303030303010204081034
:100190002040800102040810200102040810200001
:1001A0000000070002010000030406000000000038
:1001B000000000007E1311241FBECFEFD8E0DEBF89
:1001C000CDBF12E0A0E0B1E0E4E3FBE202C00590A5
:1001D0000D92A031B107D9F716E0A0E1B2E001C05D
:1001E0001D92A532B107E1F711E0C6EBD1E004C0E2
:1001F0002297FE010E949415C43BD107C9F70E94C3
:10020000CE130C9498150C940000FB01DC0102C085
:1002100005900D9241505040D8F70895FB01DC0144
:1002200004C08D910190801921F441505040C8F7CD
:10023000881B990B0895FB01DC0101900D920020B1
:10024000E1F70895FB01DC014150504030F08D9101
:100250000190801919F40020B9F7881B990B0895B3
:10026000FA01CF93FF93EF93223044F1253234F516
:10027000C22FE894CA3049F497FB3EF490958095DC
:10028000709561957F4F8F4F9F4F2C2F33274427B9
:100290005527FF93EF930E947015EF91FF91605DDA
:1002A0006A330CF0695D6193B901CA016050704016
:1002B0008040904051F716F4CDE2C19310828F91A7
:1002C0009F91CF910C946401DC01FC01672F719127
:1002D0007723E1F7329704C07C916D93708362912C
:1002E000AE17BF07C8F308950F931F93DF93CF9303
:1002F000CDB7DEB7C050D1400FB6F894DEBF0FBE09
:10030000CDBF0E94E2060E94430C0E949B102091E8
:10031000CE043091CF044091D0045091D1042617DF
:1003200037074807590788F58E010F5F1F4F80E098
:1003300091E0F8019C01119221503040E1F7C80191
:1003400060E071E00E941B010E949B1068577C4E88
:100350008F4F9F4F6093CE047093CF048093D0044F
:100360009093D10486E096E00E940F1486E096E018
:100370006DE271E00E9427158AE790E0B80148E637
:1003800050E021ED31E00E94390AC050DF4F0FB636
:10039000F894DEBF0FBECDBFCF91DF911F910F91BB
:1003A0000895EF92FF920F931F937B018A0186E0DD
:1003B00096E066E371E00E942A15F701E45CFC4FC9
:1003C00010820E0D1F1D015F1D4F86E096E0B801E3
:1003D0000E942A15F8016081772767FD7095709358
:1003E000CD046093CC0486E096E04AE050E00E94A1
:1003F00008158091CC049091CD048133910549F486
:1004000086E096E06AE371E00E942A1583E061E0ED
:100410000AC0C09751F486E096E066E471E00E945D
:100420002A1583E060E00E947C111F910F91FF90DC
:10043000EF90089583E061E00E943D1189E061E062
:100440000E943D1186E096E040E855E260E070E0F1
:100450000E9453128CEB92E069EC71E04AE00E943A
:100460008E08882331F486E096E063E571E00E940F
:100470002A150E94D604882331F486E096E068E7C6
:1004800071E00E942A1584E891E062E175E00E9423
:1004900028108AE891E06AE175E00E94281080E95E
:1004A00091E062E275E00E94281088E690E060E04A
:1004B0000E940B05882331F486E096E066E971E03E
:1004C0000E942A1586E096E061EA71E00E942A15F2
:1004D00088EA91E066E275E00E94281086E096E0E6
:1004E0006EEA71E00E942A1589E061E00E947C11A9
:1004F0000895DF93CF9300D000D000D0CDB7DEB702
:10050000DE011196ECEEF1E086E001900D92815053
:10051000E1F786E191E0E0E1F2E0DF019C011D926C
:1005200021503040E1F78091D204833019F46EE11C
:1005300075E003C0BE016F5F7F4F84E490E043E449
:1005400050E00E949C0A8091D204833039F080E10F
:1005500092E0BE016F5F7F4F0E943F1081E0809369
:100560003A0280933B0286E080933C028091DF0454
:100570009091E004A091E104B091E20480933E02E6
:1005800090933F02A0934002B09341028091D20425
:10059000833039F48AE392E00C9662E175E00E94C0
:1005A000471086E592E06CE075E00E943F10A6E2FD
:1005B000B3E0E0EEF1E002C081918D9331E0E63EE0
:1005C000F307D1F79091D204992311F083E001C091
:1005D00081E080932C038DE380932D0387E080934B
:1005E0002E0381E080932F03A0E3B3E0ECE0F5E07D
:1005F00002C081918D9385E0E231F807D1F78CE05C
:10060000809336038AE080933703EFECF1E0A8E3B0
:10061000B3E002C081918D9321E0E93DF207D1F76B
:1006200022E433E03093E4042093E304913069F54D
:1006300082E38093420384E080934303D9011296BE
:10064000E2E1F5E002C081918D9335E0E631F307F8
:10065000D1F786E38093480384E0809349038AE4DA
:1006600093E09093E4048093E304DC01EEE1F5E091
:1006700002C081918D9385E0E232F807D1F78EE4D4
:1006800093E09093E4048093E3042091E304309199
:10069000E404D901EAEDF1E002C081918D9381E09B
:1006A000E03EF807D1F7C90106969093E4048093E1
:1006B000E3048A5392400E94140C26960FB6F894D5
:1006C000DEBF0FBECDBFCF91DF910895DF92EF92D5
:1006D000FF920F931F93CF93DF938C018091D204ED
:1006E000823009F4F7C0833030F4882351F181302F
:1006F00009F054C14AC0833021F0843009F04EC162
:10070000E9C00E949B102091D7043091D8044091F9
:10071000D9045091DA04E090D304F090D40400910D
:10072000D5041091D6042E0D3F1D401F511F621796
:1007300073078407950708F431C10E94790284E0A9
:1007400017C00E949B106093DF047093E0048093B5
:10075000E1049093E2041092120510921305109296
:100760001405109215050E9479020E94720681E01C
:100770008093D2040E949B106093DB047093DC048E
:100780008093DD049093DE0409C10634110508F45A
:10079000F0C080913302833409F0EBC020913E0217
:1007A00030913F0240914002509141028091DF041C
:1007B0009091E004A091E104B091E2042817390778
:1007C0004A075B0709F0D5C0CAE2D3E0FE01A801E1
:1007D000405F5D4FDF01119691819D012F5F3F4F7B
:1007E0008081853321F411968C91823039F0F901A2
:1007F000E90FF11DE417F50768F3BBC082E195E04E
:100800006AE472E00E94471050E1E52E52E0F52EB6
:10081000E00EF11EFE013196D9808F010F5F1F4F50
:1008200088818630A9F0873030F4813059F08330E8
:1008300009F045C00AC08633E9F18A3361F0833399
:10084000F1F509C086E195E037C08AE195E034C052
:1008500082E295E031C0618170E080E090E0982F05
:10086000872F762F6627F8012181620F711D811D68
:10087000911D982F872F762F66272281620F711D79
:10088000811D911D982F872F762F66272381620F58
:10089000711D811D911D28EE33E040E050E00E9463
:1008A0003D156093D7047093D8048093D904909336
:1008B000DA0405C08EE195E0B8010E944710E80116
:1008C000CD0DD11DCE15DF0508F4A4CF0E9479020D
:1008D00082E04ECF0634110508F44BC080913302FC
:1008E000833409F046C020913E0230913F0240918E
:1008F0004002509141028091DF049091E004A09168
:10090000E104B091E204281739074A075B0789F52B
:10091000EAE2F3E0A801405F5D4FDF0111969181AB
:100920009D012F5F3F4F8081853321F411968C917B
:10093000853039F0F901E90FF11DE417F50768F387
:1009400018C00E946D060E949B106093D3047093A0
:10095000D4048093D5049093D60480911A058823FB
:1009600021F08AE195E00E94020B83E08093D2049B
:1009700015C00E949B102091DB043091DC04409153
:10098000DD045091DE04205F384D4F4F5F4F261736
:1009900037074807590710F41092D204DF91CF911E
:1009A0001F910F91FF90EF90DF900895CF93DF9309
:1009B00081E080932A0590911105892F82958F708F
:1009C000805D8093D7019F70905D9093D8011092C5
:1009D000D2040E949B10EB0104C00E94E2060E9418
:1009E00066038091D204833061F00E949B106C1BDF
:1009F0007D0B60567A4E28F40E94A306882389F363
:100A0000ECCF90E08091D204833009F491E0892FFB
:100A1000DF91CF910895FF920F931F93CF93DF93B0
:100A2000182F092FF62E0E949B10EB010E94A3069F
:100A3000882329F00E94330A882309F4DBC00E942E
:100A4000E2060E94430C0E949B106C1B7D0B6053BE
:100A5000754760F3C8C088E098E0A8E0B8E08093EC
:100A6000220590932305A0932405B093250580913A
:100A7000E50490E0906E62E275E045E350E00E948C
:100A80009C0AAAE3B2E08CE0FD0111928A95E9F795
:100A9000812F902FFC01CF011C9630E0FF2019F030
:100AA000FC01208102C0FC01249101962E3241F00C
:100AB000222331F03F5FFD01E30FF11D2083EECFD4
:100AC000FD013193DF01A30FB11D222331F7FD0199
:100AD000119211961C92DF01119641E04183FD01B4
:100AE000319611961C92418386ED20E132E0821B03
:100AF00032968E0F80933A029091E50490933B02D8
:100B000040933C0240933F0290E00E94140C0E94EC
:100B10009B108B0161C00E949B10601B710B605386
:100B2000754708F060C00E94E206EC01009709F4E6
:100B300053C00E94430C892B09F04EC0C634D10526
:100B400008F44AC080913302853309F045C0809192
:100B50003402803E09F040C0909135028091E50456
:100B60009817D1F580913B028917B1F580913D022C
:100B700090E08F709070892B79F580913A02E82F80
:100B8000F0E0E65CFD4F9E01205F3D4F8081807C60
:100B900039F0329609C08081882311F4319604C05F
:100BA0003196E217F307B8F3CF010E9628173907ED
:100BB00098F08181813051F48185843039F43A96FE
:100BC00086E295E0BF010E94471006C0818590E053
:100BD0000A96E80FF91FDACF80912605882309F4D9
:100BE0009ACF81E001C080E0DF91CF911F910F91FA
:100BF000FF9008951092260510922705109228055F
:100C0000109229058091E5048F5F8093E50480911F
:100C10002205882309F02BCF1ECF8091E80461E0E4
:100C20000E947C1178940895FF920F931F93082FD0
:100C3000162FF42EF8948091E80460E00E947C1155
:100C40001F71102B1EBD0DB407FEFDCFFEBC0DB4F1
:100C500007FEFDCF0E940D061F910F91FF90089592
:100C60001F93182F282F30E0207630708091E904F0
:100C700090E02817390799F080EA6FE143E00E947D
:100C80001406412F40764093E90450E085E05595E5
:100C900047958A95E1F780E86FE10E9414061F915D
:100CA00008950F931F93182F062F0E94300680E49B
:100CB000612F402F0E9414061F910F9108950F93EA
:100CC0001F93182F072F0E945106812F8F5F602FCF
:100CD0000E9451061F910F91089588E360EB0E94D6
:100CE0005106089588E361EB0E94510608950F9321
:100CF0001F93182F062FF8948091E80460E00E945B
:100D00007C11802F8F71812B8EBD0DB407FEFDCF1E
:100D10001EBC0DB407FEFDCF07FF04C01EBC0DB402
:100D200007FEFDCF1EB50E940D06812F1F910F916A
:100D300008951F93182F0E94300680E0612F0E94B3
:100D400077061F91089584ED61E10E94510682EDBE
:100D500061E00E9451068AEE0E94990680FDFBCF59
:100D600082ED60E00E94510689ED0E94990690E0B4
:100D70009695879596958795817008950F931F9303
:100D8000CF93DF93EC018B01F8948091E80460E04D
:100D90000E947C118AE38EBD0DB407FEFDCF09C011
:100DA0001EBC0DB407FEFDCF8EB5F80181938F01F7
:100DB00021972097A9F70E940D06DF91CF911F91EF
:100DC0000F9108950F931F93DF93CF9300D000D01E
:100DD00000D0CDB7DEB789E30E949906882319F4C5
:100DE00000E010E048C06091EA047091EB0480E0FC
:100DF0000E945F0686E090E0BE016F5F7F4F0E9419
:100E0000BE0689819A819093EB048093EA042B813A
:100E10003C81E091E604F091E7048D8187FD03C0F9
:100E200000E010E00EC0245030408F01015010400F
:100E30002017310708F48901C80160E172E00E94BF
:100E4000BE06F801E05FFD4F10826091EA047091E8
:100E5000EB048CE06130780724F08CE06FEF7BE0EE
:100E600003C0615070408CE00E945F0680E86EE134
:100E700040E40E941406C80126960FB6F894DEBF1F
:100E80000FBECDBFCF91DF911F910F9108950F93AA
:100E90001F93CF93DF938C01EB01F8948091E804CA
:100EA00060E00E947C118AE78EBD0DB407FEFDCF85
:100EB00008C088818EBD0DB407FEFDCF219601507C
:100EC000104001151105A9F70E940D06DF91CF9181
:100ED0001F910F910895CF93DF93EC010FC08CE128
:100EE0000E94990681FF0AC080E86FE140E80E94F5
:100EF000140680EA6FE140E80E94140680E06FE18A
:100F00000E94770683FDEBCF82E060E07CE00E94E8
:100F10005F06BE016050744F86E00E945F068AE75C
:100F200060E040E00E941406CE0160E172E00E94A1
:100F3000470780E86FE148E00E941406DF91CF91F7
:100F400008958AE061E00E943D118AE061E00E941C
:100F50007C118BE061E00E943D118DE061E00E9418
:100F60003D118CE060E00E943D118BE061E00E9449
:100F70007C118BE060E00E947C118DE060E00E94BB
:100F80007C1180E58CBD8DB581608DBD08951F936A
:100F9000CF93DF93EB01142F9093E7048093E60443
:100FA0000CB406FC02C00E94A1071093E804812F34
:100FB00061E00E943D110E940D068FEF60E04FEF4F
:100FC0000E94140662E070E080E090E00E94A910A8
:100FD00080E06DE10E9477068823D1F31092EB0444
:100FE0001092EA0488E060E070E00E945F068CE006
:100FF00060E070E00E945F068AE06FEF7BE00E9495
:101000005F0684E060E07CE00E945F0686E06FEFB0
:1010100071E10E945F060E94720688E26FE370E34E
:101020000E945F0680E369EF77EF0E945F0680EC25
:101030006DE00E94510681EC60E00E94510680E85C
:1010400062EC42E30E94140686EC62E17CE00E94BE
:101050005F0684EC62E10E9451068AEC6CED75E05B
:101060000E945F0684EE68810E94510685EE6981C8
:101070000E94510682EE6A810E94510683EE6B81C6
:101080000E94510680EE6C810E94510681EE6D81B6
:101090000E94510684ED60E10E94510686ED60E0F9
:1010A00071E00E945F068AEE0E94990680FDFBCFE8
:1010B0008FE10E94300680E86BE140EC0E9414064C
:1010C00080E86FE144E00E94140682E70E949906DE
:1010D000863008F08F5FDF91CF911F910895CF93F5
:1010E000DF93EC019B018A30910548F06AE070E0E3
:1010F0000E945C15CB01B9010E946F089C01CE01D2
:101100006AE070E00E945C15805DF9018193D9016D
:1011100011961C92CF01DF91CF910895AF92BF92AB
:10112000CF92DF92FF920F931F93CF93DF938C01A7
:10113000EB01F42E10922A0538E341E050E060E024
:1011400070E018C0832F90E0FC01B3E0F595E795BF
:10115000BA95E1F7E451FB4F877090705A016B012B
:1011600004C0AA0CBB1CCC1CDD1C8A95D2F72081C4
:101170002A292083315031F78CE095E0BE010E948E
:101180003F10C8016CE075E04F2D0E94C707DF914A
:10119000CF911F910F91FF90DF90CF90BF90AF90B4
:1011A0000895CF92DF92EF92FF920F931F93DF93F8
:1011B000CF93CDB7DEB7EB84FC84CD84DE84DE0133
:1011C0001F9601C0D801F6018491882309F4BAC0A2
:1011D0000894C11CD11C843209F097C0F601089410
:1011E000C11CD11C8491863409F45DC0873434F469
:1011F000843469F0853409F088C06CC08C34B9F14E
:10120000833509F443C0883409F07FC00BC08D01D9
:101210000E5F1F4FF701668177818D919C910E942F
:101220006F087EC02C91822F992787FD909514E03E
:10123000959587951A95E1F78F702F702A300CF0ED
:10124000295F8A300CF0895F8D010E5F1F4FF70117
:10125000A681B781805DFD018193205D11962C935D
:101260003196D7011796FC93EE931697ABCF8D016D
:101270000C5F1F4F6D917D918D919C91F70146817F
:1012800057812AE030E00E9430014AC08D010E5F94
:101290001F4F6D917C91D70116968D919C91179758
:1012A0000E941B013DC08D010E5F1F4F2D913C918F
:1012B0000AC0D7011696ED91FC9117978193179666
:1012C000FC93EE931697F9012F5F3F4F849188238B
:1012D00081F778CF8D010E5F1F4F2D913C910AC091
:1012E000D7011696ED91FC91179781931796FC9371
:1012F000EE931697F999FECF32BD21BDF89A80B5CD
:101300002F5F3F4F882361F75DCFF701268137813B
:10131000F90181939F01F701378326838D0152CF15
:10132000D70116968D919C911797FC010190002092
:10133000E9F73197E81BF90B8E0F9F1FF701978391
:10134000868340CFCF91DF911F910F91FF90EF9057
:10135000DF90CF900895FC01A681B7816D93B7838C
:10136000A68381E090E00895DF92EF92FF920F93C1
:101370001F93CF93DF93D82E862FBA01213041F4EB
:10138000675F7F4F9B0140E050E0695070400EC0A6
:10139000223029F020E030E040E050E007C0625009
:1013A00070409B0140E050E06E5F7F4FE82EFF24CD
:1013B00080E192E0E80EF91E8B01E7010FC0F88191
:1013C000E0E0898190E08E2B9F2BA0E0B0E0280F19
:1013D000391F4A1F5B1F2296025010400230110530
:1013E00070F7CB018E7FD701A80FB91F6817790757
:1013F00079F08C9190E0A0E0B0E0BA2FA92F982F5F
:10140000882702C040E050E0280F391F4A1F5B1FA9
:10141000CA01AA27BB270097A105B10599F7C90101
:1014200080959095ED2DF0E0E05FFD4F90838183F6
:10143000DF91CF911F910F91FF90EF90DF90089572
:10144000109228021092290280E4809324021092C4
:1014500025028093260288E16EE044E150E020E01E
:101460000E94B409089580912C058695809581701D
:101470000895909341058093400570934B056093C8
:101480004A0550934305409342058DE391E09093C4
:101490004505809344051092470510924605309308
:1014A0004905209348053091E6012091E70187E73F
:1014B0009FE0909334058093330587EB9EE09093F3
:1014C00036058093350520932F053093300581E054
:1014D00080932D0580912E058F5F877080932E0558
:1014E00080933F0508950F931F93BC0100E112E024
:1014F000C8010E943F10C80106966CE075E00E948A
:101500003F101F910F910895EF92FF920F931F9339
:101510007B010E94730A0EE212E0C801B7010E942B
:101520004710C801049762E175E00E9447101F91BF
:101530000F91FF90EF900895EF92FF920F931F93FA
:10154000CF93DF937C01EB018A0187E395E00E9452
:10155000840A8881807F803E49F088819981AA81B0
:10156000BB818F5F9F4FAF4FBF4F31F480E192E05F
:1015700062EF71E00E943F1088E080931C0210929D
:101580001D028EE192E068E970E049E050E00E94BF
:1015900005011092200281E180932702109334020A
:1015A00000933502F0923202E0923302109236023A
:1015B0001092380210923902DF91CF911F910F9152
:1015C000FF90EF900895EF92FF920F931F9306E123
:1015D00012E0C8010E94730A74E1E72EF12CE00EBC
:1015E000F11EC8014896B7010E944710C70162E189
:1015F00075E00E9447100E94200A1F910F91FF90F2
:10160000EF900895BC0181E080932C058AE195E07C
:101610000E94471008950F931F938C018896909312
:101620002002809321020E94200A1092420210920E
:101630004302045E1F4F82E36AE1A80122E00E9498
:10164000B409C8014A960E946B071F910F91089533
:10165000CF93DF939C01862F806180933F0264309B
:1016600029F02115310511F421E030E09091340288
:10167000809132028093340290933202909135022D
:10168000809133028093350290933302C9E3D2E014
:101690008881A901480F511D2C814C832883252F57
:1016A0003327219752E0C533D50791F71D861E8653
:1016B00080E589871092200288E2809321020E94AF
:1016C000E30A84E08B871C8682E36AE14CE150E008
:1016D00022E00E94B40986E390E00E946B07DF914C
:1016E000CF910895E82FA0912002B0912102F091AE
:1016F0003E024091340250E0292F30E04217530758
:1017000009F08EC0809135028E1709F089C0809152
:101710003F02E82F81FF4EC0109220028CE280939E
:1017200021020E94E30A82E180933F0290913402F9
:10173000809132028093340290933202909135026C
:10174000809133028093350290933302E9E3F2E013
:1017500021E030E08081A901480F511D44831082AF
:10176000252F3327319752E0E533F50799F7158692
:101770001686118212828091EB01838314828D5F21
:101780008093EB0182E0818B84E0828B95E0938BE8
:10179000148A80E68187938788E7848782E36AE1F9
:1017A00040E250E022E00E94B4098AE390E00E9407
:1017B0006B0736C084FF34C04F2F50E084E055954E
:1017C00047958A95E1F79A2F80E02B2F30E0282B60
:1017D000392BCA01880F991F880F991F281B390BB5
:1017E0002451304037FF02C020E030E030933E0506
:1017F00020933D05232B69F09A01220F331F220FFE
:10180000331F2E5D3F4F685070406217730740F0E2
:1018100009C0E0FF05C080E090E060E00E94280B76
:1018200020E030E0C90108950F931F93DF93CF9319
:101830000F92CDB7DEB78C01045E1F4F10932002CC
:101840000C511040802F845E8093210289830E9476
:10185000200A085F1F4F10933602898184518093BC
:101860003702085F1F4F88E26AE1A80121E00E9469
:10187000B409C8014A960E946B070F90CF91DF917F
:101880001F910F910895DF92EF92FF920F931F9394
:10189000CF93DF93EC0180912A05882319F0CE01C4
:1018A0000E946603209709F0BFC080912C058570C7
:1018B000F1F18091E8019091E901892BC1F50E9435
:1018C000A3068823A1F182EF91E00E94730A88E0C9
:1018D00080931C02A6E0FA2EF0921D028EE192E0A7
:1018E00060E970E048E050E00E94050100E312E08A
:1018F000D8011D92FA94E9F7C8010A976CE075E0E7
:101900000E943F10C80106966AE175E00E944710E8
:10191000C801049762E175E00E94471080912C0590
:10192000886080932C058AE290E00E946B0780918A
:10193000E8019091E90101969093E9018093E80113
:1019400080912D05813009F002C280912C0581FF24
:10195000FEC102E000932D058091EA018F5F809324
:10196000EA018F7110912E051295110F107E182B20
:10197000E0902F05D090300587E395E066E275E0B2
:101980000E94840AF8E0FF2EF0921C0210921D02C1
:101990008EE192E068E970E049E050E00E940501C4
:1019A0008CE28093210286E0809327020E94200A25
:1019B000E0923402D09235028BE080933202109391
:1019C0003302E6E3F2E0DF011D92FA94E9F7809139
:1019D000EB01809338028D5F8093EB0180E680936A
:1019E0003E0200933F0283E0809340021092410246
:1019F0001092420210924302109244021092450249
:101A00000093460284E0809347020093480286E2F6
:101A10008093490282E36AE140E250E022E00E94C2
:101A2000B4098AE390E0AEC080912E028F3E79F433
:101A300080912F028F3F59F4809130028F3F39F40B
:101A4000809131028A3F19F42AE230E082C1C93222
:101A5000D10508F47CC110911C02183009F082C134
:101A600080911D02863009F07DC186E392E062E13B
:101A700075E044E050E00E940E01009709F072C149
:101A800080912502813029F586E192E00E94730A57
:101A90001092240282E08093250280E392E066E2C5
:101AA00072E00E943F1086E292E06CE075E00E94D6
:101AB0003F1086E392E06CE272E00E9447108CE2F5
:101AC00092E062E175E00E9447108AE290E00E9495
:101AD0006B0780912C0583FF3AC1109125021230CB
:101AE00009F035C18CE292E06AE175E044E050E033
:101AF0000E940E01009709F02AC187E395E066E293
:101B000072E00E943F1010932C0521C1183009F09B
:101B10001EC180911D02882309F019C180911E0207
:101B2000853409F014C18EE292E062E175E044E090
:101B300050E00E940E01009709F009C18091270230
:101B4000813019F5809132028830F9F4E091310545
:101B5000F0913205309719F08AE292E009950E94DF
:101B6000E30A1092320280913402883F28F080917B
:101B700035028F5F8093350280913402885F8093B5
:101B80003402CE010E946B07E2C00E94BB0F882383
:101B900051F080912702813131F4CE010E94C00FB3
:101BA000882309F0D4C0C633D10528F480912702D8
:101BB000863009F0CCC0809134028B3009F0BEC071
:101BC0008AE292E066E275E044E050E00E940E0195
:101BD000009709F0BCC080913F02382F82FF13C0EC
:101BE000E0913305F0913405309759F0809135023A
:101BF00082958695877063E040E050E020E030E019
:101C0000099585E090C09091200280E0209121020A
:101C1000022F10E0082B192B80913E02482F50E034
:101C2000E4E055954795EA95E1F7CA01880F991FB9
:101C3000880F991F081B190B0451104017FF02C091
:101C400000E010E080912D05823079F531FF21C050
:101C500034FF1FC080E090E060E00E94280B88E124
:101C600080933F02E0913505F0913605309719F4E5
:101C700020E030E007C0809133028295869587701E
:101C800009959C0183E080932D05C9010E940B0BEF
:101C90005EC081E080932D0534FF03C080E090E0BA
:101CA00002C0C801019664E046C0833081F5011589
:101CB000110579F1E0913305F0913405309749F140
:101CC000440F551F440F551FCE0108974E5D5F4FBF
:101CD0008417950708F4AC01C801840F951FC81735
:101CE000D90710F0980103C09E01241B350B809189
:101CF000350282958695877060E0099580912B0565
:101D0000882319F0C80168E016C0C80108C08530F2
:101D1000F1F030FF0BC08330D1F0C801019669E0CB
:101D20000E94280B86E080932D0511C00115110536
:101D300071F0C80160E00E94280B09C08091E601A3
:101D40009091E701BE010E94720B9C0102C020E04D
:101D500030E0C901DF91CF911F910F91FF90EF907B
:101D6000DF900895CA32D10508F0D0CEF0CFCF92DF
:101D7000DF92EF92FF920F931F93DF93CF93CDB734
:101D8000DEB728970FB6F894DEBF0FBECDBF26E4AE
:101D900032E03E832D8338872F8390913F0589174A
:101DA00009F08FC01C821B828CEF91E09A8389839B
:101DB000409146055091470541155105A9F58DB74C
:101DC0009EB70C970FB6F8949EBF0FBE8DBFEDB7B0
:101DD000FEB73196CE010196ADB7BEB712969C9371
:101DE0008E93119789E191E09383828380914005DE
:101DF000909141059583848380914A0590914B058C
:101E000097838683809142059091430591878087CF
:101E10008091440590914505938782870E94D1085F
:101E20008DB79EB70C9648C020914405309145056A
:101E3000E0904005F0904105009142051091430566
:101E40002115310519F061EC71E004C064EC71E01A
:101E500021EA30E0DA010D900020E9F76D010894E5
:101E6000C108D108C41AD50A8DB79EB740970FB6DE
:101E7000F8949EBF0FBE8DBFEDB7FEB73196CE0171
:101E80000196ADB7BEB712969C938E93119782EAD6
:101E900090E093838283F582E482178306833187FF
:101EA000208773876287D586C486578746870E94B6
:101EB000D1088DB79EB740960FB6F8949EBF0FBE5F
:101EC0008DBF2F8138858D819E81281B390BC901DB
:101ED00028960FB6F894DEBF0FBECDBFCF91DF912D
:101EE0001F910F91FF90EF90DF90CF9008950F9387
:101EF0001F93CF93DF93890190913F05891759F084
:101F0000E0914805F091490584E060E070E040E030
:101F100050E009952AC0662341F52D30310528F19E
:101F2000C0914805D09149052097F9F0475E5D4F73
:101F300085EC91E0BA0143E050E00E9422019C014F
:101F400080E0232B09F081E060913E0270E024E004
:101F5000759567952A95E1F7660F771F660F771FCE
:101F60006E5D7F4FA801FE01099580E0DF91CF9162
:101F70001F910F91089580917405811181E008955A
:101F8000CF92DF92EF92FF920F931F93CF93DF9345
:101F9000CCE4D5E030E0CC24DD2429C02A814B817B
:101FA0008091340290E0042F10E080179107D9F45B
:101FB000909135029217B9F48C818823A1F0209179
:101FC000370230E028503040F0903602EE242E0DDB
:101FD0003F1DE881F981892F942F6AE272E04AE37C
:101FE00052E0099531E00894C11CD11C25968091DE
:101FF000740590E0C816D9068CF2832FDF91CF913B
:102000001F910F91FF90EF90DF90CF9008950F9365
:102010001F93CF93DF938C01C0E0D0E0F801EC0F69
:10202000FD1F86E096E060814AE050E00E94B61411
:10203000C33029F086E096E06EE20E9407142196F4
:10204000C430D10559F7DF91CF911F910F910895B9
:10205000EF92FF920F931F939C017B0106E016E025
:10206000C801B9010E942715C7010E940710C801C5
:102070000E940F141F910F91FF90EF900895DC01C3
:10208000FB0186E001900D928150E1F708959C01DB
:10209000FB0180819181A281B381F90180839183C9
:1020A000A283B38308951F920F920FB60F9211244B
:1020B0002F933F938F939F93AF93BF938091790515
:1020C00090917A05A0917B05B0917C0530917D05BA
:1020D0000196A11DB11D232F2D5F2D3720F02D5707
:1020E0000196A11DB11D20937D05809379059093E4
:1020F0007A05A0937B05B0937C058091750590913E
:102100007605A0917705B09178050196A11DB11DC6
:102110008093750590937605A0937705B093780525
:10212000BF91AF919F918F913F912F910F900FBED3
:102130000F901F9018958FB7F894209179053091E2
:102140007A0540917B0550917C058FBFB901CA018A
:1021500008959B01AC017FB7F8948091750590912B
:102160007605A0917705B091780566B5A89B05C066
:102170006F3F19F00196A11DB11D7FBFBA2FA92F86
:10218000982F8827860F911DA11DB11D62E0880F31
:10219000991FAA1FBB1F6A95D1F7BC012DC0FFB7BD
:1021A000F8948091750590917605A0917705B0918E
:1021B0007805E6B5A89B05C0EF3F19F00196A11D73
:1021C000B11DFFBFBA2FA92F982F88278E0F911D01
:1021D000A11DB11DE2E0880F991FAA1FBB1FEA9540
:1021E000D1F7861B970B885E9340C8F22150304090
:1021F0004040504068517C4F211531054105510543
:1022000071F60895789484B5826084BD84B5816048
:1022100084BD85B5826085BD85B5816085BDEEE6EE
:10222000F0E0808181608083E1E8F0E010828081CD
:1022300082608083808181608083E0E8F0E080813B
:1022400081608083E1EBF0E0808184608083E0EB5B
:10225000F0E0808181608083EAE7F0E08081846043
:10226000808380818260808380818160808380819F
:10227000806880831092C1000895CF93DF93482F28
:1022800050E0CA0185579E4FFC01349149585E4F7A
:10229000FA018491882369F190E0880F991FFC016D
:1022A000E75AFE4FA591B491FC01ED59FE4FC5913F
:1022B000D491662351F42FB7F8948C91932F909575
:1022C00089238C93888189230BC0623061F42FB7F6
:1022D000F8948C91932F909589238C938881832BEC
:1022E00088832FBF06C09FB7F8948C91832B8C9363
:1022F0009FBFDF91CF910895482F50E0CA018156CA
:102300009E4FFC012491CA0185579E4FFC01949178
:1023100049585E4FFA013491332309F440C0222317
:1023200051F1233071F0243028F42130A1F0223013
:1023300011F514C02630B1F02730C1F02430D9F4A3
:1023400004C0809180008F7703C0809180008F7DD2
:102350008093800010C084B58F7702C084B58F7DD4
:1023600084BD09C08091B0008F7703C08091B00018
:102370008F7D8093B000E32FF0E0EE0FFF1FED594B
:10238000FE4FA591B4912FB7F894662321F48C9158
:102390009095892302C08C91892B8C932FBF08952F
:1023A00008951F920F920FB60F9211242F933F930F
:1023B0004F938F939F93EF93FF934091C60020918B
:1023C000BE053091BF052F5F3F4F2F733070809156
:1023D000C0059091C1052817390759F0E091BE0555
:1023E000F091BF05E258FA4F40833093BF05209328
:1023F000BE05FF91EF919F918F914F913F912F914A
:102400000F900FBE0F901F901895E0911206F0915B
:102410001306E05CFF4F8191919120813181821BF5
:10242000930B8F739070892B11F00E94D011089537
:102430001F920F920FB60F9211242F933F938F93F9
:102440009F93EF93FF9320910206309103068091B2
:102450000406909105062817390731F48091C100D0
:102460008F7D8093C10014C0E0910406F0910506B1
:10247000EE53FA4F20818091040690910506019653
:102480008F73907090930506809304062093C60086
:10249000FF91EF919F918F913F912F910F900FBEE0
:1024A0000F901F901895AF92BF92DF92EF92FF921C
:1024B0000F931F93CF93DF93EC017A018B01DD24FF
:1024C000403081EE580780E0680780E0780711F01F
:1024D000DD24D39491E0A92EB12CEC89FD89DD2077
:1024E00069F0C5010E8C02C0880F991F0A94E2F7AB
:1024F000808360E079E08DE390E005C0108260E8C1
:1025000074E88EE190E0A80197010E9470152150B7
:10251000304040405040569547953795279580E18B
:102520002030380720F0DD2011F0DD24D6CFE889F7
:10253000F9893083EA89FB892083EE89FF8940810C
:1025400021E030E0C9010A8C02C0880F991F0A946B
:10255000E2F7482B4083EE89FF894081C9010B8C4B
:1025600002C0880F991F0A94E2F7482B4083EE8936
:10257000FF894081C9010C8C02C0880F991F0A9401
:10258000E2F7482B4083EE89FF8980810D8C02C0E1
:10259000220F331F0A94E2F7209528232083DF912E
:1025A000CF911F910F91FF90EF90DF90BF90AF9070
:1025B0000895DC011C96ED91FC911D97E05CFF4FA6
:1025C0002191319180819181281B390B2F733070BB
:1025D000C9010895DC011C96ED91FC911D97E05C0A
:1025E000FF4F20813181E054F040DF01AE5BBF4FEF
:1025F0008D919C9111972817390719F42FEF3FEF10
:1026000007C08D919C91E80FF91F8081282F30E041
:10261000C9010895DC011C96ED91FC911D97E05CC9
:10262000FF4F20813181E054F040DF01AE5BBF4FAE
:102630008D919C9111972817390719F42FEF3FEFCF
:1026400010C08D919C911197E80FF91F20818D91F9
:102650009C91119701968F73907011969C938E9315
:1026600030E0C9010895FC0186859785DC01A05CF6
:10267000BF4FFC01EE5BFF4F2D913C911197808184
:10268000918128173907C1F70895CF93DF93EC01A3
:10269000EE85FF85E05CFF4F20813181E054F04002
:1026A0002F5F3F4F2F733070DF01AE5BBF4F8D91B7
:1026B0009C91119728173907D1F3E05CFF4F808177
:1026C0009181E054F040E80FF91F6083EE85FF85AB
:1026D000E05CFF4F31832083EE89FF89208181E018
:1026E00090E00D8C02C0880F991F0A94E2F7282B06
:1026F000208381E090E0DF91CF9108951092090648
:102700001092080688EE93E0A0E0B0E080930A06FD
:1027100090930B06A0930C06B0930D0684E092E014
:1027200090930706809306068EE795E09093130634
:102730008093120682EC95E0909315068093140620
:1027400085EC90E0909317068093160684EC90E059
:10275000909319068093180680EC90E090931B06E6
:1027600080931A0681EC90E090931D0680931C06DE
:1027700086EC90E090931F0680931E0684E0809381
:10278000200683E08093210687E08093220685E07F
:102790008093230681E0809324060895CF93DF93EE
:1027A0000E9402110E941A02C5E0D2E10E94740147
:1027B0002097E1F30E940512F9CFCF92DF92EF92BA
:1027C000FF920F931F93CF93DF937C016B018A01DC
:1027D000C0E0D0E00FC0D6016D916D01D701ED9141
:1027E000FC910190F081E02DC7010995C80FD91F18
:1027F000015010400115110571F7CE01DF91CF9105
:102800001F910F91FF90EF90DF90CF900895DC0122
:10281000ED91FC910190F081E02D09950895EF92E2
:10282000FF920F931F938C01DC01ED91FC910190BD
:10283000F081E02D6DE009957C01D801ED91FC91CE
:102840000190F081E02DC8016AE009959C012E0DF0
:102850003F1DC9011F910F91FF90EF900895CF93F5
:10286000DF93DB010D900020E9F71197A61BB70B52
:10287000EC01E881F9810280F381E02DAD01099539
:10288000DF91CF9108954F925F927F928F929F92A6
:10289000AF92BF92CF92DF92EF92FF920F931F936E
:1028A000DF93CF93CDB7DEB7A1970FB6F894DEBF15
:1028B0000FBECDBF2C01742ECB01223008F42AE0CC
:1028C00019A231E2C32ED12CCC0EDD1E822E99240A
:1028D000AA24BB24672D752FA50194010E947015B1
:1028E00079018A01C801B701A50194010E943D1533
:1028F000472D461B0894C108D1084A3014F4405DA6
:1029000001C0495CF6014083E114F10401051105A1
:1029100021F07E2C5F2DC801DDCFC201B6010E94DF
:102920002F14A1960FB6F894DEBF0FBECDBFCF9186
:10293000DF911F910F91FF90EF90DF90CF90BF90AC
:10294000AF909F908F907F905F904F900895DC01A3
:102950002115310541F4ED91FC910190F081E02DBC
:10296000642F099508950E9443140895EF92FF92F1
:102970000F931F939A01E62EFF2400E010E0B801A8
:10298000A7010E94A7141F910F91FF90EF90089547
:10299000CF92DF92EF92FF920F931F93CF93DF932B
:1029A000EC016A017B012115310541F4E881F981CF
:1029B0000190F081E02D642F09951FC02A30310568
:1029C000D1F477FF17C0E881F9810190F081E02D03
:1029D0006DE209958C0144275527BA014C195D0910
:1029E0006E097F09CE012AE00E9443149801280F46
:1029F000391F04C02AE00E9443149C01C901DF91E1
:102A0000CF911F910F91FF90EF90DF90CF9008959D
:102A1000CF92DF92EF92FF920F931F936C017B0195
:102A20009A010027F7FC0095102FB801A7010E941A
:102A3000C8148C01C6010E940F14080F191FC80189
:102A40001F910F91FF90EF90DF90CF9008950E941B
:102A50002F140895EF92FF920F931F937C010E9411
:102A60002F148C01C7010E940F14080F191FC801F1
:102A70001F910F91FF90EF900895629FD001739F77
:102A8000F001829FE00DF11D649FE00DF11D929F0A
:102A9000F00D839FF00D749FF00D659FF00D992749
:102AA000729FB00DE11DF91F639FB00DE11DF91F6D
:102AB000BD01CF0111240895AA1BBB1B51E107C022
:102AC000AA1FBB1FA617B70710F0A61BB70B881FBE
:102AD000991F5A95A9F780959095BC01CD0108954D
:102AE000A1E21A2EAA1BBB1BFD010DC0AA1FBB1F12
:102AF000EE1FFF1FA217B307E407F50720F0A21B84
:102B0000B30BE40BF50B661F771F881F991F1A94F0
:102B100069F760957095809590959B01AC01BD011A
:102B2000CF010895EE0FFF1F0590F491E02D099459
:042B3000F894FFCF47
:102B34003F6170694B65793D306161626232336235
:102B44002D396430652D343865392D383866382D83
:102B5400663361313436343731646132003C3C3C95
:102B64002052455120003E3E3E00616374756174FD
:102B74006F72204F4E006163747561746F72204FE1
:102B84004646004661696C656420746F2061636326
:102B94006573732045746865726E657420636F6E27
:102BA40074726F6C6C6572004448435020666169AE
:102BB4006C65640049503A20200047573A202000B1
:102BC400444E533A2000444E53206661696C656458
:102BD400006C696E652031005352563A20007475BA
:102BE400726E696E67206F6E20746865206C656410
:102BF400000D0A0000323030007469692D30314113
:102C0400726475696E6F2D3030003703010306FF5F
:102C140063825363350150000100010AFFFFFFFF87
:102C2400FFFFFFFFFFFFFFFF00000000AB09DD1304
:102C3400000000004513DD13D9120A13EA123313FE
:00000001FF
