:100000000C9414010C943C010C943C010C943C01A4
:100010000C943C010C943C010C943C010C943C016C
:100020000C943C010C943C010C943C010C943C015C
:100030000C943C010C943C010C943C010C943C014C
:100040000C94550E0C943C010C94E10F0C9464102C
:100050000C943C010C943C010C943C010C943C012C
:100060000C943C010C943C01485454502F312E30D8
:1000700020323030204F4B0D0A436F6E74656E7422
:100080002D547970653A20746578742F68746D6C9E
:100090000D0A507261676D613A206E6F2D63616366
:1000A00068650D0A0D0A3C6D657461206874747092
:1000B0002D65717569763D2772656672657368276F
:1000C00020636F6E74656E743D2731272F3E3C743C
:1000D00069746C653E524242422073657276657265
:1000E0003C2F7469746C653E3C68313E2444244462
:1000F0003A244424443A244424443C2F68313E00AA
:1001000000010800060400014500008200004000D4
:100110002000504F535420244620485454502F312F
:100120002E300D0A486F73743A2024460D0A244677
:1001300024534163636570743A202A2F2A0D0A43C1
:100140006F6E74656E742D4C656E6774683A20240A
:10015000440D0A436F6E74656E742D547970653A60
:10016000206170706C69636174696F6E2F782D7790
:1001700077772D666F726D2D75726C656E636F6427
:1001800065640D0A0D0A2453004745542024462473
:100190005320485454502F312E300D0A486F737439
:1001A0003A2024460D0A24460D0A0D0A00416363D5
:1001B0006570743A20746578742F68746D6C00E310
:1001C0000004FA00010000000100000000240027E4
:1001D000002A0000000000250028002B000000007D
:1001E000002300260029000404040404040404027B
:1001F00002020202020303030303030102040810C4
:100200002040800102040810200102040810200090
:1002100000000700020100000304060000000000C7
:1002200000000000A801171011241FBECFEFD8E076
:10023000DEBFCDBF11E0A0E0B1E0E6EEF4E202C027
:1002400005900D92A836B107D9F714E0A8E6B1E001
:1002500001C01D92A93AB107E1F712E0C8E2D2E06D
:1002600004C02297FE010E946D12C432D107C9F763
:100270000E948A100C9471120C940000FB01DC01A6
:1002800002C005900D9241505040D8F70895FB01EF
:10029000DC0104C08D910190801921F4415050403F
:1002A000C8F7881B990B0895FB01DC0101900D92A2
:1002B0000020E1F70895FA01CF93FF93EF932230E6
:1002C00044F1253234F5C22FE894CA3049F497FB43
:1002D0003EF490958095709561957F4F8F4F9F4F1D
:1002E0002C2F332744275527FF93EF930E942E127C
:1002F000EF91FF91605D6A330CF0695D6193B90124
:10030000CA01605070408040904051F716F4CDE231
:10031000C19310828F919F91CF910C948F01DC013A
:10032000FC01672F71917723E1F7329704C07C912C
:100330006D9370836291AE17BF07C8F30895FC01F7
:10034000A681B7816D93B783A68381E090E008957D
:1003500010925F0310925E0388E491E090935D0336
:1003600080935C0308959F92AF92BF92CF92DF92E9
:10037000EF92FF920F931F930E949D0E28EE33E0A1
:1003800040E050E00E942E12122F032FF42EE52E93
:10039000622F732F842F952F20E13EE040E050E044
:1003A0000E94501259016A01612F702F8F2D9E2DCE
:1003B0002CE330E040E050E00E945012CA01B90145
:1003C0002CE330E040E050E00E945012962E612F66
:1003D000702F8F2D9E2D2CE330E040E050E00E94E6
:1003E0005012262F10925F0310925E038EE991E067
:1003F00090936103809360039093630380936203FF
:100400008DB79EB740970FB6F8949EBF0FBE8DBFB5
:10041000EDB7FEB731968CE593E0ADB7BEB7129657
:100420009C938E93119788E690E093838283C50115
:100430006AE070E00E941A1275836483C5016AE065
:1004400070E00E941A1297838683892D6AE00E94C9
:100450000E1280871186892D0E940E1292871386B4
:10046000822F0E940E1284871586822F0E940E1200
:10047000968717860E9421082091620330916303BA
:100480008091600390916103281B390B8DB79EB753
:1004900040960FB6F8949EBF0FBE8DBFC9011F9145
:1004A0000F91FF90EF90DF90CF90BF90AF909F9013
:1004B00008950E94FB050E94800B892B21F00E9469
:1004C000B3010E949E0A089584EF91E065E271E015
:1004D0004AE00E94DE07882331F48CE094E060E07B
:1004E00071E00E94FF108BE291E060E070E040E07C
:1004F00050E020E030E00E94A8070895DF93CF93FA
:1005000000D000D000D0CDB7DEB7DE011196ECE40C
:10051000F1E086E001900D928150E1F786E191E0F3
:10052000E8E6F1E0DF019C011D9221503040E1F747
:1005300080916403833019F467EB73E003C0BE015C
:100540006F5F7F4F84E490E043E450E00E94C40971
:1005500080916403833039F088E691E0BE016F5FDB
:100560007F4F0E94410E81E080939201809393011E
:1005700086E0809394018091710390917203A09121
:100580007303B09174038093960190939701A093A5
:100590009801B093990180916403833039F482E922
:1005A00091E00C9667EA73E00E94490E8EEA91E0B2
:1005B00061EA73E00E94410EAEE7B2E0EAE3F1E0E7
:1005C00002C081918D9331E0E034F307D1F790912F
:1005D0006403992311F083E001C081E080938402D9
:1005E0008DE38093850287E08093860281E080938B
:1005F0008702A8E8B2E0E1EAF3E002C081918D93BE
:1006000083E0E73AF807D1F78CE080938E028AE026
:1006100080938F02EFE2F1E0A0E9B2E002C08191A5
:100620008D9321E0E933F207D1F72AE932E03093E4
:10063000790320937803913069F582E380939A02DD
:1006400084E080939B02D9011296E7EAF3E002C0AE
:1006500081918D9333E0EB3AF307D1F786E38093F2
:10066000A00284E08093A10282EA92E09093790351
:1006700080937803DC01E7EBF3E002C081918D9376
:1006800083E0EB3BF807D1F786EA92E09093790399
:100690008093780320917703222311F094E001C026
:1006A00093E0A0917803B0917903FD0187E38193F2
:1006B00011969C93DF01119681E08183FD013196B3
:1006C00083E011968C93DF01119686E08183CD0142
:1006D00001969093790380937803222339F0119641
:1006E0002C9301969093790380937803E09178039B
:1006F000F09179038FEF8193F0937903E09378037E
:10070000CF01825991400E94510B26960FB6F89462
:10071000DEBF0FBECDBFCF91DF910895EF92FF9264
:100720000F931F93CF93DF938C01809164038230EA
:1007300009F4F8C0833030F4882351F1813009F096
:1007400066C14BC0833021F0843009F060C1EAC03B
:100750000E949D0E2091690330916A0340916B03C2
:1007600050916C03E0906503F0906603009167037D
:10077000109168032E0D3F1D401F511F6217730714
:100780008407950708F443C10E947E0284E018C0E4
:100790000E949D0E609371037093720380937303A4
:1007A000909374031092A7031092A8031092A903C8
:1007B0001092AA030E947E0281E00E94AB0581E0B4
:1007C000809364030E949D0E60936D0370936E038B
:1007D00080936F03909370031AC10634110508F4D7
:1007E000D5C080918B01833409F0D0C0209196014F
:1007F0003091970140919801509199018091710336
:1008000090917203A0917303B09174032817390774
:100810004A075B0709F0BAC0C2E8D2E0FE01A801AE
:1008200048595E4FDF01119691819D012F5F3F4F27
:100830008081853329F411968C91823009F4C5C0EA
:10084000F901E90FF11DE417F50760F39FC0FE0100
:100850009191E980EF0121969333D9F0943340F4DC
:10086000933089F0963091F0913009F046C008C07D
:100870009A3379F09F3F09F451C09633F1F537C0B0
:100880008BEA93E036C083EB93E033C08BEB93E0CD
:1008900030C0618170E080E090E0982F872F762F44
:1008A00066272981620F711D811D911D982F872F49
:1008B000762F66272A81620F711D811D911D982F49
:1008C000872F762F66272B81620F711D811D911D49
:1008D00028EE33E040E050E00E94EF11609369039E
:1008E00070936A0380936B0390936C0389C087EBCA
:1008F00093E0BE010E94490E83C0E0917503F09120
:100900007603309709F47CC080917703981709F03B
:1009100077C0892FBE014E2D099572C00E947E02BC
:1009200082E04ECF0634110588F180918B0183342B
:1009300069F520919601309197014091980150916D
:1009400099018091710390917203A0917303B0910A
:100950007403281739074A075B07C1F4E2E8F2E09D
:10096000A80148595E4FDF01119691819D012F5FCB
:100970003F4F8081853321F411968C91853071F140
:10098000F901E90FF11DE417F50768F30E949D0EC8
:1009900020916D0330916E0340916F03509170036D
:1009A000205F384D4F4F5F4F2617370748075907CD
:1009B00048F02DC083EB93E00E942A0A83E08093E5
:1009C000640325C01092640322C087EA93E062EAC0
:1009D00071E00E94490E08591E4F39CF81E00E94F4
:1009E0009A050E949D0E6093650370936603809341
:1009F0006703909368038091B3038823F9F2DACFF9
:100A0000CE0DD11DC017D10708F421CF87CFDF91BC
:100A1000CF911F910F91FF90EF90089580917D03EA
:100A200061E00E948D0F78940895FF920F931F93B9
:100A3000082F162FF42EF89480917D0360E00E9419
:100A40008D0F1F71102B1EBD0DB407FEFDCFFEBC18
:100A50000DB407FEFDCF0E940E051F910F91FF9070
:100A600008951F93182F282F30E020763070809142
:100A70007E0390E02817390799F080EA6FE143E0A0
:100A80000E941505412F407640937E0350E085E09B
:100A9000559547958A95E1F780E86FE10E94150525
:100AA0001F9108950F931F93182F062F0E94310551
:100AB00080E4612F402F0E9415051F910F9108952A
:100AC0000F931F93182F072F0E945205812F8F5FBE
:100AD000602F0E9452051F910F9108950F931F934D
:100AE000182F062FF89480917D0360E00E948D0FEF
:100AF000802F8F71812B8EBD0DB407FEFDCF1EBCE4
:100B00000DB407FEFDCF07FF04C01EBC0DB407FEE9
:100B1000FDCF1EB50E940E05812F1F910F910895E4
:100B20001F93182F0E94310580E0612F0E946E05EF
:100B30001F910895882311F410927C0380917C0307
:100B4000882341F488E30E949005682F6E7F88E334
:100B50000E94520508951F93182F88E30E94900564
:100B6000682F616088E30E945205112319F481E027
:100B700080937C031F91089584ED61E10E945205EA
:100B800082ED61E00E9452058AEE0E94900580FD90
:100B9000FBCF82ED60E00E94520589ED0E94900536
:100BA00090E09695879596958795817008950F9317
:100BB0001F93CF93DF93EC018B01F89480917D0319
:100BC00060E00E948D0F8AE38EBD0DB407FEFDCF5D
:100BD00009C01EBC0DB407FEFDCF8EB5F801819390
:100BE0008F0121972097A9F70E940E05DF91CF91E1
:100BF0001F910F9108950F931F93DF93CF9300D010
:100C000000D000D0CDB7DEB789E30E9490058823DD
:100C100019F400E010E048C060917F0370918003F8
:100C200080E00E94600586E090E0BE016F5F7F4F2C
:100C30000E94D70589819A819093800380937F03D6
:100C40002B813C81E0917A03F0917B038D8187FDBC
:100C500003C000E010E00EC0245030408F0101506E
:100C600010402017310708F48901C80168E671E0D7
:100C70000E94D705F801E859FE4F108260917F036A
:100C8000709180038CE06130780724F08CE06FEF86
:100C90007BE003C0615070408CE00E94600580E8FA
:100CA0006EE140E40E941505C80126960FB6F8943F
:100CB000DEBF0FBECDBFCF91DF911F910F91089581
:100CC0000F931F93CF93DF938C01EB01F8948091E6
:100CD0007D0360E00E948D0F8AE78EBD0DB407FE94
:100CE000FDCF08C088818EBD0DB407FEFDCF2196D3
:100CF0000150104001151105A9F70E940E05DF9162
:100D0000CF911F910F910895CF93DF93EC010FC006
:100D10008CE10E94900581FF0AC080E86FE140E805
:100D20000E94150580EA6FE140E80E94150580E009
:100D30006FE10E946E0583FDEBCF82E060E07CE016
:100D40000E946005BE016050744F86E00E946005FD
:100D50008AE760E040E00E941505CE0168E671E098
:100D60000E94600680E86FE148E00E941505DF916F
:100D7000CF9108958AE061E00E944E0F8AE061E021
:100D80000E948D0F8BE061E00E944E0F8DE061E0CC
:100D90000E944E0F8CE060E00E944E0F8BE061E0FD
:100DA0000E948D0F8BE060E00E948D0F8DE060E06F
:100DB0000E948D0F80E58CBD8DB581608DBD08953D
:100DC0001F93CF93DF93EB01142F90937B038093BA
:100DD0007A030CB406FC02C00E94BA0610937D038D
:100DE000812F61E00E944E0F0E940E058FEF60E0A0
:100DF0004FEF0E94150562E070E080E090E00E94F5
:100E0000E60E80E06DE10E946E058823D1F310921A
:100E1000800310927F0388E060E070E00E9460052C
:100E20008CE060E070E00E9460058AE06FEF7BE09C
:100E30000E94600584E060E07CE00E94600586E03E
:100E40006FEF71E10E94600580E00E94AB0588E2CF
:100E50006FE370E30E94600580E369EF77EF0E9423
:100E6000600580EC6DE00E94520581EC60E00E941C
:100E7000520580E862EC42E30E94150586EC62E1CF
:100E80007CE00E94600584EC62E10E9452058AECDD
:100E90006CED75E00E94600584EE68810E94520549
:100EA00085EE69810E94520582EE6A810E94520598
:100EB00083EE6B810E94520580EE6C810E94520588
:100EC00081EE6D810E94520584ED60E10E94520521
:100ED00086ED60E071E00E9460058AEE0E94900558
:100EE00080FDFBCF8FE10E94310580E86BE140EC93
:100EF0000E94150580E86FE144E00E94150582E735
:100F00000E949005863008F08F5FDF91CF911F918E
:100F10000895CF93DF93EC019B018A30910548F04F
:100F20006AE070E00E941A12CB01B9010E948907A1
:100F30009C01CE016AE070E00E941A12805DF90106
:100F40008193D90111961C92CF01DF91CF91089521
:100F5000EF92FF920F931F93CF93DF93FC01EB016E
:100F60008A0179011092C303009729F087EA93E080
:100F7000BF010E94490E209719F0CE010E942A0A53
:100F80000115110529F08BEB93E0B8010E94490E81
:100F9000E114F10429F08BEA93E0B7010E94490EB5
:100FA0000E947A091092C6031092C50381E0DF9176
:100FB000CF911F910F91FF90EF900895AF92BF9244
:100FC000CF92DF92FF920F931F93CF93DF938C0109
:100FD000EB01F42E1092C30338E341E050E060E0EF
:100FE00070E018C0832F90E0FC01B3E0F595E79521
:100FF000BA95E1F7EF57FC4F877090705A016B017B
:1010000004C0AA0CBB1CCC1CDD1C8A95D2F7208125
:101010002A292083315031F781EA93E0BE010E94F2
:10102000410EC80161EA73E04F2D0E94E006DF9196
:10103000CF911F910F91FF90DF90CF90BF90AF9015
:101040000895CF92DF92EF92FF920F931F93DF9359
:10105000CF93CDB7DEB7EB84FC84CD84DE84DE0194
:101060001F9601C0D801F6018491882309F4BAC003
:101070000894C11CD11C843209F097C0F601089471
:10108000C11CD11C8491863409F45DC0873434F4CA
:10109000843469F0853409F088C06CC08C34B9F1AF
:1010A000833509F443C0883409F07FC00BC08D013B
:1010B0000E5F1F4FF701668177818D919C910E9491
:1010C00089077EC02C91822F992787FD909514E087
:1010D000959587951A95E1F78F702F702A300CF04F
:1010E000295F8A300CF0895F8D010E5F1F4FF70179
:1010F000A681B781805DFD018193205D11962C93BF
:101100003196D7011796FC93EE931697ABCF8D01CE
:101110000C5F1F4F6D917D918D919C91F7014681E0
:1011200057812AE030E00E945B014AC08D010E5FCA
:101130001F4F6D917C91D70116968D919C911797B9
:101140000E9454013DC08D010E5F1F4F2D913C91B7
:101150000AC0D7011696ED91FC91179781931796C7
:10116000FC93EE931697F9012F5F3F4F84918823EC
:1011700081F778CF8D010E5F1F4F2D913C910AC0F2
:10118000D7011696ED91FC91179781931796FC93D2
:10119000EE931697F999FECF32BD21BDF89A80B52E
:1011A0002F5F3F4F882361F75DCFF701268137819D
:1011B000F90181939F01F701378326838D0152CF77
:1011C000D70116968D919C911797FC0101900020F4
:1011D000E9F73197E81BF90B8E0F9F1FF7019783F3
:1011E000868340CFCF91DF911F910F91FF90EF90B9
:1011F000DF90CF900895DF92EF92FF920F931F93AD
:10120000CF93DF93D82E862FBA01213041F4675F48
:101210007F4F9B0140E050E0695070400EC022308B
:1012200029F020E030E040E050E007C0625070401C
:101230009B0140E050E06E5F7F4FE82EFF2488E680
:1012400091E0E80EF91E8B01E7010FC0F881E0E0A4
:10125000898190E08E2B9F2BA0E0B0E0280F391FF2
:101260004A1F5B1F2296025010400230110570F792
:10127000CB018E7FD701A80FB91F6817790779F0C6
:101280008C9190E0A0E0B0E0BA2FA92F982F88278A
:1012900002C040E050E0280F391F4A1F5B1FCA01FF
:1012A000AA27BB270097A105B10599F7C901809529
:1012B0009095ED2DF0E0E859FE4F90838183DF910A
:1012C000CF911F910F91FF90EF90DF9008951092B2
:1012D00080011092810180E480937C0110927D0155
:1012E00080937E0188E16EE044E150E020E00E94BE
:1012F000FB0808958091AB0380959091A703892BFB
:101300008093AF038091AC0380959091A803892BC3
:101310008093B0038091AD0380959091A903892BB0
:101320008093B1038091AE0380959091AA03892B9D
:101330008093B20308950F931F93BC0108E611E058
:10134000C8010E94410EC801069661EA73E00E943E
:10135000410E1F910F910895EF92FF920F931F93EB
:101360007B010E949B0906E811E0C801B7010E94B9
:10137000490EC801049767EA73E00E94490E1F9165
:101380000F91FF90EF900895EF92FF920F931F93AC
:10139000CF93DF937C01EB018A0182ED93E00E9401
:1013A000AC098881807F803E49F088819981AA813B
:1013B000BB818F5F9F4FAF4FBF4F31F488E691E005
:1013C00062E571E00E94410E88E080937401109202
:1013D000750186E791E068E071E049E050E00E9425
:1013E0003E011092780181E180937F0110938C017E
:1013F00000938D01F0928A01E0928B0110928E0190
:101400001092900110929101DF91CF911F910F9155
:10141000FF90EF900895EF92FF920F931F930EE6C7
:1014200011E0C8010E949B0974E1E72EF12CE00E47
:10143000F11EC8014896B7010E94490EC70167EA2C
:1014400073E00E94490E0E9467091F910F91FF905F
:10145000EF900895BC011092C6031092C50381E07D
:101460008093C70383EB93E00E94490E08950F9386
:101470001F938C01889690937801809379010E9444
:10148000670910929A0110929B01045E1F4F82E33C
:101490006AE1A80122E00E94FB08C8014A960E9466
:1014A00084061F910F910895CF93DF939C01862F9F
:1014B000806180939701643029F02115310511F482
:1014C00021E030E090918C0180918A0180938C0121
:1014D00090938A0190918D0180918B0180938D0171
:1014E00090938B01C1E9D1E08881A901480F511D7A
:1014F0002C814C832883252F3327219751E0CD3829
:10150000D50791F71D861E8680E5898710927801A0
:1015100088E2809379010E940B0A84E08B871C8605
:1015200082E36AE14CE150E022E00E94FB0886E39E
:1015300090E00E948406DF91CF9108950F931F934E
:101540008C018091D8039091D90360E00E94540AE5
:1015500089E180939701C8010E94370A1F910F917A
:101560000895E82F40918C0150E0292F30E0421778
:10157000530709F092C080918D018E1709F08DC03C
:1015800080919701E82F81FF4EC0109278018CE284
:10159000809379010E940B0A82E1809397019091D8
:1015A0008C0180918A0180938C0190938A019091A3
:1015B0008D0180918B0180938D0190938B01E1E9E6
:1015C000F1E021E030E08081A901480F511D448302
:1015D0001082252F3327319751E0ED38F50799F721
:1015E00015861686118212828091430183831482AC
:1015F0008D5F8093430182E0818B84E0828B95E054
:10160000938B148A80E68187938788E7848782E3B7
:101610006AE140E250E022E00E94FB088AE390E0A9
:101620000E9484063AC084FF38C09091780180E01F
:101630002091790130E0282B392B80919601482F99
:1016400050E0A4E055954795AA95E1F7CA01880FA7
:10165000991F880F991F281B390B2451304037FFE1
:1016600002C020E030E03093D9032093D803232B2D
:1016700069F09A01220F331F220F331F2E5D3F4F57
:10168000685070406217730740F009C0E0FF05C062
:1016900080E090E060E00E94540A20E030E0C90160
:1016A00008950F931F93DF93CF930F92CDB7DEB7BB
:1016B0008C01045E1F4F109378010C511040802F55
:1016C000845E8093790189830E946709085F1F4FB8
:1016D00010938E018981845180938F01085F1F4F81
:1016E00088E26AE1A80121E00E94FB08C8014A964D
:1016F0000E9484060F90CF91DF911F910F91089562
:10170000DF92EF92FF920F931F93CF93DF93EC0141
:101710008091C303882319F0CE010E948E03209785
:1017200009F0BFC08091C7038570F1F18091C503B6
:101730009091C603892BC1F50E94BC058823A1F1B5
:1017400082E591E00E949B0988E080937401E6E0C5
:10175000FE2EF092750186E791E060E071E048E0CE
:1017600050E00E943E0108E811E0D8011D92FA9471
:10177000E9F7C8010A9761EA73E00E94410EC801C7
:10178000069663EB73E00E94490EC801049767EA6E
:1017900073E00E94490E8091C70388608093C7035D
:1017A0008AE290E00E9484068091C5039091C6036E
:1017B00001969093C6038093C5038091C80381303E
:1017C00009F003C28091C70381FFFFC102E00093CB
:1017D000C803809142018F5F809342018F71109105
:1017E000C9031295110F107E182BE090CA03D090F8
:1017F000CB0382ED93E06FEB73E00E94AC0978E0DD
:10180000F72EF09274011092750186E791E068E07E
:1018100071E049E050E00E943E018CE28093790142
:1018200086E080937F010E946709E0928C01D0924C
:101830008D018BE080938A0110938B01EEE8F1E03B
:10184000DF011D92FA94E9F78091430180939001A2
:101850008D5F8093430180E680939601009397010A
:1018600083E0809398011092990110929A0110924E
:101870009B0110929C0110929D0100939E0184E0B7
:1018800080939F010093A00186E28093A10182E3EF
:101890006AE140E250E022E00E94FB088AE390E027
:1018A000AFC0C932D10508F490C11091740118304D
:1018B00009F096C180917501863009F091C18EE8DA
:1018C00091E067EA73E044E050E00E94470100972E
:1018D00009F086C180917D01813029F58EE691E085
:1018E0000E949B0910927C0182E080937D0188E830
:1018F00091E06EE771E00E94410E8EE791E061EAAF
:1019000073E00E94410E8EE891E064E871E00E946D
:10191000490E84E891E067EA73E00E94490E8AE28A
:1019200090E00E9484068091C70383FF4EC110910E
:101930007D01123009F049C184E891E063EB73E066
:1019400044E050E00E944701009709F03EC182ED5B
:1019500093E06EE771E00E94410E1093C70335C11A
:10196000183009F032C180917501882309F02DC12A
:1019700080917601853409F028C186E891E067EA14
:1019800073E044E050E00E9447010097A9F086E828
:1019900091E06FEA73E044E050E00E944701009755
:1019A00059F086E891E062E571E044E050E00E9481
:1019B0004701009709F009C180917F01813019F535
:1019C00080918A018830F9F4E091CC03F091CD0345
:1019D000309719F082E891E009950E940B0A109265
:1019E0008A0180918C01883F28F080918D018F5F62
:1019F00080938D0180918C01885F80938C01CE0152
:101A00000E948406E2C00E94F50D882351F0809167
:101A10007F01813131F4CE010E94FA0D882309F053
:101A2000D4C0C633D10528F480917F01863009F0F7
:101A3000CCC080918C018B3009F0BEC082E891E06F
:101A40006FEB73E044E050E00E944701009709F01B
:101A5000BCC080919701382F82FF13C0E091CE0364
:101A6000F091CF03309759F080918D018295869542
:101A7000877063E040E050E020E030E0099585E0C9
:101A800090C09091780180E020917901022F10E0C0
:101A9000082B192B80919601482F50E064E0559552
:101AA00047956A95E1F7CA01880F991F880F991F1A
:101AB000081B190B0451104017FF02C000E010E092
:101AC0008091C803823079F531FF21C034FF1FC0F7
:101AD00080E090E060E00E94540A88E180939701E2
:101AE000E091D003F091D103309719F420E030E079
:101AF00007C080918B0182958695877009959C011E
:101B000083E08093C803C9010E94370A5EC081E068
:101B10008093C80334FF03C080E090E002C0C80196
:101B2000019664E046C0833081F50115110579F115
:101B3000E091CE03F091CF03309749F1440F551F48
:101B4000440F551FCE0108974E5D5F4F84179507D0
:101B500008F4AC01C801840F951FC817D90710F00D
:101B6000980103C09E01241B350B80918D01829545
:101B70008695877060E009958091C403882319F0E9
:101B8000C80168E016C0C80108C08530F1F030FF18
:101B90000BC08330D1F0C801019669E00E94540A5D
:101BA00086E08093C80311C00115110571F0C801CA
:101BB00060E00E94540A09C0809140019091410167
:101BC000BE010E94B10A9C0102C020E030E0C901C0
:101BD000DF91CF911F910F91FF90EF90DF900895CB
:101BE000CA32D10508F0BCCEF0CF80910204811139
:101BF00081E00895CF92DF92EF92FF920F931F93AF
:101C0000CF93DF93CAEDD3E030E0CC24DD2429C0AC
:101C10002A814B8180918C0190E0042F10E0801785
:101C20009107D9F490918D019217B9F48C81882392
:101C3000A1F020918F0130E028503040F0908E01CB
:101C4000EE242E0D3F1DE881F981892F942F62E843
:101C500071E042E951E0099531E00894C11CD11CC2
:101C600025968091020490E0C816D9068CF2832F45
:101C7000DF91CF911F910F91FF90EF90DF90CF9068
:101C80000895DC01FB0186E001900D928150E1F79F
:101C900008959C01FB0180819181A281B381F901AA
:101CA00080839183A283B38308951F920F920FB60E
:101CB0000F9211242F933F938F939F93AF93BF93D2
:101CC0008091070490910804A0910904B0910A043E
:101CD00030910B040196A11DB11D232F2D5F2D37CF
:101CE00020F02D570196A11DB11D20930B04809368
:101CF000070490930804A0930904B0930A04809108
:101D0000030490910404A0910504B0910604019687
:101D1000A11DB11D8093030490930404A0930504B6
:101D2000B0930604BF91AF919F918F913F912F91F6
:101D30000F900FBE0F901F9018958FB7F8942091B9
:101D40000704309108044091090450910A048FBFA0
:101D5000B901CA010895789484B5826084BD84B5C0
:101D6000816084BD85B5826085BD85B5816085BD96
:101D7000EEE6F0E0808181608083E1E8F0E01082AF
:101D8000808182608083808181608083E0E8F0E0F0
:101D9000808181608083E1EBF0E0808184608083DA
:101DA000E0EBF0E0808181608083EAE7F0E0808111
:101DB0008460808380818260808380818160808371
:101DC0008081806880831092C1000895EF92FF9215
:101DD0000F931F93CF93DF937B018C013FB7F89450
:101DE0008091030490910404A0910504B09106042D
:101DF00026B5A89B05C02F3F19F00196A11DB11D66
:101E00003FBFBA2FA92F982F8827820F911DA11DA0
:101E1000B11D52E0880F991FAA1FBB1F5A95D1F719
:101E2000EC0130C00E9412113FB7F8948091030476
:101E300090910404A0910504B091060426B5A89BD6
:101E400005C02F3F19F00196A11DB11D3FBFBA2F4C
:101E5000A92F982F8827820F911DA11DB11D32E057
:101E6000880F991FAA1FBB1F3A95D1F78C1B9D0B9A
:101E7000885E9340B8F20894E108F108010911095D
:101E8000C851DC4FE114F1040105110559F6DF9149
:101E9000CF911F910F91FF90EF900895CF93DF9313
:101EA000482F50E0CA0185509E4FFC0134914951A2
:101EB0005E4FFA018491882369F190E0880F991FA1
:101EC000FC01E753FE4FA591B491FC01ED52FE4F8A
:101ED000C591D491662351F42FB7F8948C91932F28
:101EE000909589238C93888189230BC0623061F49B
:101EF0002FB7F8948C91932F909589238C93888198
:101F0000832B88832FBF06C09FB7F8948C91832BB7
:101F10008C939FBFDF91CF910895482F50E0CA0165
:101F2000815F9D4FFC012491CA0185509E4FFC01A9
:101F3000949149515E4FFA013491332309F440C022
:101F4000222351F1233071F0243028F42130A1F004
:101F5000223011F514C02630B1F02730C1F0243002
:101F6000D9F404C0809180008F7703C080918000F5
:101F70008F7D8093800010C084B58F7702C084B5B8
:101F80008F7D84BD09C08091B0008F7703C08091A0
:101F9000B0008F7D8093B000E32FF0E0EE0FFF1FC5
:101FA000ED52FE4FA591B4912FB7F894662321F41A
:101FB0008C919095892302C08C91892B8C932FBF93
:101FC00008951F920F920FB60F9211242F938F93A3
:101FD0009F93EF93FF93E0911C04F0911D04808187
:101FE00082FD16C0E0912204F0912304208190919B
:101FF00025049F5F9F7380912604981771F0E091EC
:102000002504F0E0E45FFB4F258F9093250405C085
:10201000E0912204F0912304E081FF91EF919F91E0
:102020008F912F910F900FBE0F901F9018951092C7
:102030000F0410920E0488EE93E0A0E0B0E08093CD
:10204000100490931104A0931204B09313048CE530
:1020500091E090930D0480930C0485EC90E09093B4
:1020600019048093180484EC90E090931B048093EF
:102070001A0480EC90E090931D0480931C0481EC82
:1020800090E090931F0480931E0482EC90E0909364
:1020900021048093200486EC90E0909323048093A5
:1020A0002204109225041092260410922704109204
:1020B000280408958CE094E00E94431120E0892BCD
:1020C00009F021E0822F08951F920F920FB60F9210
:1020D00011242F933F934F935F936F937F938F932D
:1020E0009F93AF93BF93EF93FF938CE094E00E9494
:1020F0001311FF91EF91BF91AF919F918F917F91BC
:102100006F915F914F913F912F910F900FBE0F9064
:102110001F901895CF93DF930E94AB0E0E9464022C
:10212000C0EED1E10E9459022097E1F30E94E01134
:10213000F9CFCF92DF92EF92FF920F931F93CF933D
:10214000DF937C016B018A01C0E0D0E00FC0D601B3
:102150006D916D01D701ED91FC910190F081E02D21
:10216000C7010995C80FD91F01501040011511056D
:1021700071F7CE01DF91CF911F910F91FF90EF90FA
:10218000DF90CF900895EF92FF920F931F938C01F1
:10219000DC01ED91FC910190F081E02D6DE009955D
:1021A0007C01D801ED91FC910190F081E02DC801F6
:1021B0006AE009959C012E0D3F1DC9011F910F91E9
:1021C000FF90EF900895CF93DF93EC0161157105B7
:1021D00019F420E030E00FC0DB010D900020E9F79A
:1021E0001197A61BB70BE881F9810280F381E02DDE
:1021F000AD0109959C01C901DF91CF910895EF923E
:10220000FF920F931F937C010E94E3108C01C70182
:102210000E94C310080F191FC8011F910F91FF9052
:10222000EF9008950895DC015C968C915C97FD0118
:10223000E80FF11DE35AFF4F20815C968C915C976B
:1022400090E001968F7390705C968C935C97569695
:10225000ED91FC91579720835096ED91FC91519709
:102260008081806480835B969C915B975C968C9167
:102270005C97981739F45296ED91FC9153978081B1
:102280008F7D80830895FC01218D828D30E0205C5C
:102290003F4F281B31092F733070C9010895FC018D
:1022A000918D828D981719F42FEF3FEF06C0828D24
:1022B000E80FF11D858D282F30E0C9010895DC015C
:1022C00059969C9159975A968C915A97981719F448
:1022D0002FEF3FEF10C05A968C915A97FD01E80FEF
:1022E000F11D958D5A968C915A978F5F8F735A96E0
:1022F0008C93292F30E0C9010895CF93DF93EC012F
:10230000888D882361F419C08C9185FF0AC0E88903
:10231000F989808185FF05C0CE010E941311AA8929
:10232000BB898C9185FD05C0E889F989808186FD8E
:1023300004C00FB607FEE8CFF4CFDF91CF91089528
:102340000F931F93CF93DF93EC01062F9B8D8C8D02
:10235000981791F5E889F989808185FF2DC0EE896C
:10236000FF896083E889F9898081806480831DC04A
:102370000FB607FC08C0E889F989808185FF03C092
:10238000CE010E9413118C8D181791F38B8DFE01D5
:10239000E80FF11DE35AFF4F00831B8FEA89FB8989
:1023A00080818062808381E0888F81E090E0DF918E
:1023B000CF911F910F9108951B8D1F5F1F73E3CF66
:1023C0008AE590E1892B51F080E090E0892B31F093
:1023D0000E945A10882311F00E9400000895629F05
:1023E000D001739FF001829FE00DF11D649FE00D0D
:1023F000F11D929FF00D839FF00D749FF00D659F6E
:10240000F00D9927729FB00DE11DF91F639FB00D6C
:10241000E11DF91FBD01CF0111240895991B79E039
:1024200004C0991F961708F0961B881F7A95C9F764
:1024300080950895AA1BBB1B51E107C0AA1FBB1FB3
:10244000A617B70710F0A61BB70B881F991F5A9540
:10245000A9F780959095BC01CD010895A1E21A2EAF
:10246000AA1BBB1BFD010DC0AA1FBB1FEE1FFF1F38
:10247000A217B307E407F50720F0A21BB30BE40B88
:10248000F50B661F771F881F991F1A9469F76095CF
:102490007095809590959B01AC01BD01CF01089589
:1024A00097FB092E05260ED057FD04D0D7DF0AD0A2
:1024B000001C38F450954095309521953F4F4F4F73
:1024C0005F4F0895F6F790958095709561957F4FD1
:1024D0008F4F9F4F0895EE0FFF1F0590F491E02D51
:0624E0000994F894FFCFFF
:1024E6004661696C656420746F206163636573730C
:1024F6002045746865726E657420636F6E74726FC2
:102506006C6C6572007469692D3031C0A801CB41CD
:10251600726475696E6F2D303000638253633501C6
:102526005000010A000000009F019910FFFFFFFF05
:10253600FFFFFFFFFFFFFFFF00000000A011991043
:0825460043115F114F117D11DB
:00000001FF
