:100000000C945A010C9482010C9482010C9482018C
:100010000C9482010C9482010C9482010C94820154
:100020000C9482010C9482010C9482010C94820144
:100030000C9482010C9482010C9482010C94820134
:100040000C94030D0C9482010C94CF0F0C9452105D
:100050000C9482010C9482010C9482010C94820114
:100060000C9482010C948201485454502F312E304C
:1000700020353033205365727669636520556E6193
:100080007661696C61626C650D0A436F6E74656EB2
:10009000742D547970653A20746578742F68746D86
:1000A0006C0D0A52657472792D41667465723A203E
:1000B0003630300D0A0D0A3C68746D6C3E3C686544
:1000C00061643E3C7469746C653E53657276696325
:1000D000652054656D706F726172696C7920556E20
:1000E000617661696C61626C653C2F7469746C65E2
:1000F0003E3C2F686561643E3C626F64793E3C68BB
:10010000333E54686973207365727669636520694C
:10011000732063757272656E746C7920756E61768A
:1001200061696C61626C653C2F68333E3C703E3C9B
:10013000656D3E546865206D61696E2073657276E9
:1001400065722069732063757272656E746C7920B4
:100150006F66662D6C696E652E3C6272202F3E5074
:100160006C656173652074727920616761696E20C6
:100170006C617465722E3C2F656D3E3C2F703E3C69
:100180002F626F64793E3C2F68746D6C3E000001F5
:100190000800060400014500008200004000200025
:1001A000504F535420244620485454502F312E3061
:1001B0000D0A486F73743A2024460D0A24462453CE
:1001C0004163636570743A202A2F2A0D0A436F6ECB
:1001D00074656E742D4C656E6774683A2024440D06
:1001E0000A436F6E74656E742D547970653A2061A0
:1001F00070706C69636174696F6E2F782D77777793
:100200002D666F726D2D75726C656E636F646564BB
:100210000D0A0D0A24530047455420244624532038
:10022000485454502F312E300D0A486F73743A20C1
:1002300024460D0A24460D0A0D0A004163636570C9
:10024000743A20746578742F68746D6C00E3000450
:10025000FA00010000000100000000240027002A2D
:100260000000000000250028002B000000000023F3
:100270000026002900040404040404040402020209
:1002800002020203030303030301020408102040D7
:100290008001020408102001020408102000000060
:1002A0000700020100000304060000000000000037
:1002B0000000051011241FBECFEFD8E0DEBFCDBF78
:1002C00011E0A0E0B1E0E4EBF3E202C005900D9292
:1002D000A638B107D9F714E0A6E8B1E001C01D9235
:1002E000AF3BB107E1F712E0C4EBD2E004C02297C4
:1002F000FE010E94D411C23BD107C9F70E947810B9
:100300000C94D8110C940000FB01DC0102C0059094
:100310000D9241505040D8F70895FB01DC0104C014
:100320008D910190801921F441505040C8F7881BED
:10033000990B08950E94A0050E94F609892B61F08F
:100340008CEB91E068E670E046E251E00E948401A7
:1003500085E291E00E941409089582E294E040E071
:1003600051EE60E070E026E00E94BF0E82E294E071
:1003700060E071E00E947D1184EF91E06FE471E034
:1003800048E00E942E07882331F482E294E06CE07A
:1003900071E00E947D110E947804882331F482E28A
:1003A00094E061E371E00E947D118DE391E06DEBDB
:1003B00073E00E94D80C83E491E069EC73E00E9442
:1003C000D80C89E491E061ED73E00E94D80C0895A7
:1003D000DF93CF9300D000D000D0CDB7DEB7DE01E1
:1003E0001196EAE6F1E086E001900D928150E1F786
:1003F00086E191E0E6E8F1E0DF019C011D922150E9
:100400003040E1F780917A03833019F46DEC73E0AA
:1004100003C0BE016F5F7F4F84E490E043E450E08F
:100420000E943A0880917A03833039F086E891E09F
:10043000BE016F5F7F4F0E94EF0C81E08093B0019F
:100440008093B10186E08093B201809187039091FF
:100450008803A0918903B0918A038093B40190939B
:10046000B501A093B601B093B70180917A038330B0
:1004700039F480EB91E00C966DEB73E00E94F70C81
:100480008CEC91E067EB73E00E94EF0CACE9B2E01A
:10049000E0E6F1E002C081918D9331E0E636F307AA
:1004A000D1F790917A03992311F083E001C081E0A4
:1004B0008093A2028DE38093A30287E08093A4023D
:1004C00081E08093A502A6EAB2E0E7EBF3E002C088
:1004D00081918D9383E0ED3BF807D1F78CE0809319
:1004E000AC028AE08093AD02E5E5F1E0AEEAB2E06D
:1004F00002C081918D9321E0EF35F207D1F728EB0F
:1005000032E030938F0320938E03913069F582E3BC
:100510008093B80284E08093B902D9011296EDEB82
:10052000F3E002C081918D9333E0E13CF307D1F712
:1005300086E38093BE0284E08093BF0280EC92E069
:1005400090938F0380938E03DC01EDECF3E002C007
:1005500081918D9383E0E13DF807D1F784EC92E03F
:1005600090938F0380938E0320918D03222311F0AB
:1005700094E001C093E0A0918E03B0918F03FD0140
:1005800087E3819311969C93DF01119681E081832B
:10059000FD01319683E011968C93DF01119686E080
:1005A0008183CD01019690938F0380938E03222344
:1005B00039F011962C93019690938F0380938E03BC
:1005C000E0918E03F0918F038FEF8193F0938F036F
:1005D000E0938E03CF01805B91400E94C70926966D
:1005E0000FB6F894DEBF0FBECDBFCF91DF91089557
:1005F000EF92FF920F931F93CF93DF938C01809123
:100600007A03823009F4F8C0833030F4882351F142
:10061000813009F066C14BC0833021F0843009F08D
:1006200060C1EAC00E944B0D20917F03309180038E
:100630004091810350918203E0907B03F0907C0312
:1006400000917D0310917E032E0D3F1D401F511F11
:10065000621773078407950708F443C10E94E801F5
:1006600084E018C00E944B0D609387037093880349
:100670008093890390938A031092BD031092BE0366
:100680001092BF031092C0030E94E80181E00E9413
:10069000500581E080937A030E944B0D60938303A1
:1006A0007093840380938503909386031AC1063464
:1006B000110508F4D5C08091A901833409F0D0C098
:1006C0002091B4013091B5014091B6015091B7012C
:1006D0008091870390918803A0918903B0918A0348
:1006E000281739074A075B0709F0BAC0C0EAD2E009
:1006F000FE01A8014A575E4FDF01119691819D01CD
:100700002F5F3F4F8081853329F411968C91823081
:1007100009F4C5C0F901E90FF11DE417F50760F30D
:100720009FC0FE019191E980EF0121969333D9F0AA
:10073000943340F4933089F0963091F0913009F081
:1007400046C008C09A3379F09F3F09F451C09633F0
:10075000F1F537C081EC93E036C089EC93E033C00B
:1007600081ED93E030C0618170E080E090E0982FEF
:10077000872F762F66272981620F711D811D911D9C
:10078000982F872F762F66272A81620F711D811D72
:10079000911D982F872F762F66272B81620F711D51
:1007A000811D911D28EE33E040E050E00E94911140
:1007B00060937F03709380038093810390938203FF
:1007C00089C08DEC93E0BE010E94F70C83C0E091DC
:1007D0008B03F0918C03309709F47CC080918D03DA
:1007E000981709F077C0892FBE014E2D099572C068
:1007F0000E94E80182E04ECF0634110588F1809115
:10080000A901833469F52091B4013091B50140917B
:10081000B6015091B7018091870390918803A09110
:100820008903B0918A03281739074A075B07C1F487
:10083000E0EAF2E0A8014A575E4FDF01119691818C
:100840009D012F5F3F4F8081853321F411968C915C
:10085000853071F1F901E90FF11DE417F50768F32F
:100860000E944B0D209183033091840340918503B6
:1008700050918603205F384D4F4F5F4F2617370743
:100880004807590748F02DC089EC93E00E94A00862
:1008900083E080937A0325C010927A0322C08DEB07
:1008A00093E060EC71E00E94F70C0A571E4F39CFBD
:1008B00081E00E943F050E944B0D60937B03709383
:1008C0007C0380937D0390937E038091C9038823EA
:1008D000F9F2DACFCE0DD11DC017D10708F421CF20
:1008E00087CFDF91CF911F910F91FF90EF900895E7
:1008F000CF93DF9381E08093D9039091BC03892F3C
:1009000082958F70805D80935D019F70905D909364
:100910005E0110927A030E944B0DEB0104C00E940D
:10092000A0050E94F80280917A03833061F00E9452
:100930004B0D6C1B7D0B60567A4E28F40E946105AE
:10094000882389F3ECCF0E94F0071092DC03109209
:10095000DB0390E080917A03833009F491E0892FE2
:10096000DF91CF9108958091930361E00E943B0E47
:1009700078940895FF920F931F93082F162FF42E4B
:10098000F8948091930360E00E943B0E1F71102B3E
:100990001EBD0DB407FEFDCFFEBC0DB407FEFDCF9E
:1009A0000E94B3041F910F91FF9008951F93182F79
:1009B000282F30E0207630708091940390E0281743
:1009C000390799F080EA6FE143E00E94BA04412FB1
:1009D00040764093940350E085E0559547958A957D
:1009E000E1F780E86FE10E94BA041F9108950F9328
:1009F0001F93182F062F0E94D60480E4612F402FEA
:100A00000E94BA041F910F9108950F931F93182FFE
:100A1000072F0E94F704812F8F5F602F0E94F70439
:100A20001F910F9108950F931F93182F062FF8947D
:100A30008091930360E00E943B0E802F8F71812B89
:100A40008EBD0DB407FEFDCF1EBC0DB407FEFDCF5D
:100A500007FF04C01EBC0DB407FEFDCF1EB50E94EB
:100A6000B304812F1F910F9108951F93182F0E9497
:100A7000D60480E0612F0E9413051F9108958823FA
:100A800011F41092920380919203882341F488E339
:100A90000E943505682F6E7F88E30E94F704089551
:100AA0001F93182F88E30E943505682F616088E343
:100AB0000E94F704112319F481E0809392031F919F
:100AC000089584ED61E10E94F70482ED61E00E94E7
:100AD000F7048AEE0E94350580FDFBCF82ED60E0D1
:100AE0000E94F70489ED0E94350590E09695879560
:100AF00096958795817008950F931F93CF93DF93F9
:100B0000EC018B01F8948091930360E00E943B0E0E
:100B10008AE38EBD0DB407FEFDCF09C01EBC0DB427
:100B200007FEFDCF8EB5F80181938F0121972097A5
:100B3000A9F70E94B304DF91CF911F910F910895FF
:100B40000F931F93DF93CF9300D000D000D0CDB789
:100B5000DEB789E30E943505882319F400E010E030
:100B600048C0609195037091960380E00E9405054E
:100B700086E090E0BE016F5F7F4F0E947C05898117
:100B80009A8190939603809395032B813C81E09109
:100B90009003F09191038D8187FD03C000E010E088
:100BA0000EC0245030408F010150104020173107F3
:100BB00008F48901C80166E871E00E947C05F8012B
:100BC000EA57FE4F108260919503709196038CE076
:100BD0006130780724F08CE06FEF7BE003C0615058
:100BE00070408CE00E94050580E86EE140E40E94C0
:100BF000BA04C80126960FB6F894DEBF0FBECDBF6B
:100C0000CF91DF911F910F9108950F931F93CF9371
:100C1000DF938C01EB01F8948091930360E00E94D4
:100C20003B0E8AE78EBD0DB407FEFDCF08C088815C
:100C30008EBD0DB407FEFDCF219601501040011569
:100C40001105A9F70E94B304DF91CF911F910F9175
:100C50000895CF93DF93EC010FC08CE10E9435051E
:100C600081FF0AC080E86FE140E80E94BA0480EA90
:100C70006FE140E80E94BA0480E06FE10E94130532
:100C800083FDEBCF82E060E07CE00E940505BE01C1
:100C90006050744F86E00E9405058AE760E040E0FE
:100CA0000E94BA04CE0166E871E00E94050680E861
:100CB0006FE148E00E94BA04DF91CF9108958AE085
:100CC00061E00E94FC0D8AE061E00E943B0E8BE037
:100CD00061E00E94FC0D8DE061E00E94FC0D8CE063
:100CE00060E00E94FC0D8BE061E00E943B0E8BE017
:100CF00060E00E943B0E8DE060E00E943B0E80E5CC
:100D00008CBD8DB581608DBD08951F93CF93DF930A
:100D1000EB01142F90939103809390030CB406FC85
:100D200002C00E945F0610939303812F61E00E942E
:100D3000FC0D0E94B3048FEF60E04FEF0E94BA04F5
:100D400062E070E080E090E00E94940D80E06DE150
:100D50000E9413058823D1F31092960310929503F5
:100D600088E060E070E00E9405058CE060E070E0E3
:100D70000E9405058AE06FEF7BE00E94050584E094
:100D800060E07CE00E94050586E06FEF71E10E9463
:100D9000050580E00E94500588E26FE370E30E9441
:100DA000050580E369EF77EF0E94050580EC6DE0B3
:100DB0000E94F70481EC60E00E94F70480E862EC96
:100DC00042E30E94BA0486EC62E17CE00E940505E1
:100DD00084EC62E10E94F7048AEC6CED75E00E94FD
:100DE000050584EE68810E94F70485EE69810E9402
:100DF000F70482EE6A810E94F70483EE6B810E9401
:100E0000F70480EE6C810E94F70481EE6D810E94F0
:100E1000F70484ED60E10E94F70486ED60E071E084
:100E20000E9405058AEE0E94350580FDFBCF8FE10B
:100E30000E94D60480E86BE140EC0E94BA0480E88E
:100E40006FE144E00E94BA0482E70E9435058630D3
:100E500008F08F5FDF91CF911F910895AF92BF92FD
:100E6000CF92DF92FF920F931F93CF93DF938C016A
:100E7000EB01F42E1092D90338E341E050E060E03A
:100E800070E018C0832F90E0FC01B3E0F595E79582
:100E9000BA95E1F7E956FC4F877090705A016B01E3
:100EA00004C0AA0CBB1CCC1CDD1C8A95D2F7208187
:100EB0002A292083315031F787EB93E0BE010E944D
:100EC000EF0CC80167EB73E04F2D0E948506DF91A0
:100ED000CF911F910F91FF90DF90CF90BF90AF9077
:100EE0000895DF92EF92FF920F931F93CF93DF93BA
:100EF000D82E862FBA01213041F4675F7F4F9B01C6
:100F000040E050E0695070400EC0223029F020E0EF
:100F100030E040E050E007C0625070409B0140E08C
:100F200050E06E5F7F4FE82EFF2486E891E0E80EE8
:100F3000F91E8B01E7010FC0F881E0E0898190E0A4
:100F40008E2B9F2BA0E0B0E0280F391F4A1F5B1F9C
:100F50002296025010400230110570F7CB018E7FAF
:100F6000D701A80FB91F6817790779F08C9190E025
:100F7000A0E0B0E0BA2FA92F982F882702C040E048
:100F800050E0280F391F4A1F5B1FCA01AA27BB2741
:100F90000097A105B10599F7C90180959095ED2DB0
:100FA000F0E0EA57FE4F90838183DF91CF911F914C
:100FB0000F91FF90EF90DF90089510929E01109294
:100FC0009F0180E480939A0110929B0180939C0181
:100FD00088E16EE044E150E020E00E94710708954E
:100FE0008091C10380959091BD03892B8093C503A7
:100FF0008091C20380959091BE03892B8093C60394
:101000008091C30380959091BF03892B8093C70380
:101010008091C40380959091C003892B8093C8036D
:1010200008950F931F93BC0106E811E0C8010E94C8
:10103000EF0CC801069667EB73E00E94EF0C1F915E
:101040000F910895EF92FF920F931F937B010E94DF
:10105000110804EA11E0C801B7010E94F70CC801A9
:1010600004976DEB73E00E94F70C1F910F91FF90B6
:10107000EF900895EF92FF920F931F93CF93DF931A
:101080007C01EB018A0188EE93E00E9422088881AE
:10109000807F803E49F088819981AA81BB818F5FE2
:1010A0009F4FAF4FBF4F31F486E891E060E771E0AA
:1010B0000E94EF0C88E0809392011092930184E9E2
:1010C00091E066E971E049E050E00E9484011092ED
:1010D000960181E180939D011093AA010093AB01D9
:1010E000F092A801E092A9011092AC011092AE0119
:1010F0001092AF01DF91CF911F910F91FF90EF9070
:101100000895EF92FF920F931F930CE811E0C8012E
:101110000E94110874E1E72EF12CE00EF11EC801C7
:101120004896B7010E94F70CC7016DEB73E00E946F
:10113000F70C0E94DD071F910F91FF90EF9008952B
:10114000BC011092DC031092DB0381E08093DD038D
:1011500089EC93E00E94F70C08950F931F938C0184
:10116000889690939601809397010E94DD071092D4
:10117000B8011092B901045E1F4F82E36AE1A80131
:1011800022E00E947107C8014A960E9429061F9119
:101190000F910895CF93DF939C01862F80618093F8
:1011A000B501643029F02115310511F421E030E05A
:1011B0009091AA018091A8018093AA019093A8011F
:1011C0009091AB018091A9018093AB019093A9010B
:1011D000CFEAD1E08881A901480F511D2C814C83B1
:1011E0002883252F3327219751E0CB3AD50791F754
:1011F0001D861E8680E589871092960188E280937D
:1012000097010E94810884E08B871C8682E36AE153
:101210004CE150E022E00E94710786E390E00E94DA
:101220002906DF91CF9108950F931F938C01809130
:10123000EE039091EF0360E00E94CA0889E1809379
:10124000B501C8010E94AD081F910F910895E82FC4
:101250004091AA0150E0292F30E04217530709F0CE
:1012600092C08091AB018E1709F08DC08091B501BD
:10127000E82F81FF4EC0109296018CE28093970177
:101280000E94810882E18093B5019091AA0180912A
:10129000A8018093AA019093A8019091AB0180913D
:1012A000A9018093AB019093A901EFEAF1E021E05D
:1012B00030E08081A901480F511D44831082252F01
:1012C0003327319751E0EB3AF50799F715861686E3
:1012D0001182128280916901838314828D5F8093D1
:1012E000690182E0818B84E0828B95E0938B148A84
:1012F00080E68187938788E7848782E36AE140E21A
:1013000050E022E00E9471078AE390E00E942906E3
:101310003AC084FF38C09091960180E020919701F7
:1013200030E0282B392B8091B401482F50E0A4E005
:1013300055954795AA95E1F7CA01880F991F880F1F
:10134000991F281B390B2451304037FF02C020E081
:1013500030E03093EF032093EE03232B69F09A01E2
:10136000220F331F220F331F2E5D3F4F68507040F6
:101370006217730740F009C0E0FF05C080E090E00D
:1013800060E00E94CA0820E030E0C90108950F9390
:101390001F93DF93CF930F92CDB7DEB78C01045E1E
:1013A0001F4F109396010C511040802F845E809344
:1013B000970189830E94DD07085F1F4F1093AC01DE
:1013C000898184518093AD01085F1F4F88E26AE1F3
:1013D000A80121E00E947107C8014A960E942906CF
:1013E0000F90CF91DF911F910F910895DF92EF92AF
:1013F000FF920F931F93CF93DF93EC018091D9035A
:10140000882319F0CE010E94F802209709F0BFC08E
:101410008091DD038570F1F18091DB039091DC0315
:10142000892BC1F50E9461058823A1F180E791E035
:101430000E94110888E080939201E6E0FE2EF0926F
:10144000930184E991E06EE871E048E050E00E9489
:10145000840106EA11E0D8011D92FA94E9F7C80167
:101460000A9767EB73E00E94EF0CC801069669ECDF
:1014700073E00E94F70CC80104976DEB73E00E94C3
:10148000F70C8091DD0388608093DD038AE290E0B1
:101490000E9429068091DB039091DC0301969093D2
:1014A000DC038093DB038091DE03813009F003C20B
:1014B0008091DD0381FFFFC102E00093DE03809194
:1014C00068018F5F809368018F711091DF0312951F
:1014D000110F107E182BE090E003D090E10388EE0E
:1014E00093E065ED73E00E94220878E0F72EF09219
:1014F00092011092930184E991E066E971E049E07C
:1015000050E00E9484018CE28093970186E08093F2
:101510009D010E94DD07E092AA01D092AB018BE011
:101520008093A8011093A901ECEAF1E0DF011D927C
:10153000FA94E9F7809169018093AE018D5F809301
:10154000690180E68093B4010093B50183E0809344
:10155000B6011092B7011092B8011092B901109221
:10156000BA011092BB010093BC0184E08093BD01DD
:101570000093BE0186E28093BF0182E36AE140E20C
:1015800050E022E00E9471078AE390E0AFC0C932C8
:10159000D10508F490C110919201183009F096C15C
:1015A00080919301863009F091C18CEA91E06DEB56
:1015B00073E044E050E00E948D01009709F086C17D
:1015C00080919B01813029F58CE891E00E941108FF
:1015D00010929A0182E080939B0186EA91E06CE987
:1015E00071E00E94EF0C8CE991E067EB73E00E94E0
:1015F000EF0C8CEA91E062EA71E00E94F70C82EA5B
:1016000091E06DEB73E00E94F70C8AE290E00E949B
:1016100029068091DD0383FF4EC110919B0112309A
:1016200009F049C182EA91E069EC73E044E050E0DE
:101630000E948D01009709F03EC188EE93E06CE9AD
:1016400071E00E94EF0C1093DD0335C1183009F0F2
:1016500032C180919301882309F02DC180919401BA
:10166000853409F028C184EA91E06DEB73E044E031
:1016700050E00E948D010097A9F084EA91E065ECAA
:1016800073E044E050E00E948D01009759F084EA35
:1016900091E060E771E044E050E00E948D01009726
:1016A00009F009C180919D01813019F58091A8014F
:1016B0008830F9F4E091E203F091E303309719F0F8
:1016C00080EA91E009950E9481081092A80180911A
:1016D000AA01883F28F08091AB018F5F8093AB0116
:1016E0008091AA01885F8093AA01CE010E942906F9
:1016F000E2C00E946B0C882351F080919D018131E2
:1017000031F4CE010E94700C882309F0D4C0C63396
:10171000D10528F480919D01863009F0CCC08091DC
:10172000AA018B3009F0BEC080EA91E065ED73E05C
:1017300044E050E00E948D01009709F0BCC0809108
:10174000B501382F82FF13C0E091E403F091E50367
:10175000309759F08091AB0182958695877063E050
:1017600040E050E020E030E0099585E090C09091A5
:10177000960180E020919701022F10E0082B192B91
:101780008091B401482F50E064E0559547956A95E3
:10179000E1F7CA01880F991F880F991F081B190BC1
:1017A0000451104017FF02C000E010E08091DE03FA
:1017B000823079F531FF21C034FF1FC080E090E016
:1017C00060E00E94CA0888E18093B501E091E603D9
:1017D000F091E703309719F420E030E007C08091E2
:1017E000A90182958695877009959C0183E0809375
:1017F000DE03C9010E94AD085EC081E08093DE0374
:1018000034FF03C080E090E002C0C801019664E0AC
:1018100046C0833081F50115110579F1E091E403AB
:10182000F091E503309749F1440F551F440F551FC0
:10183000CE0108974E5D5F4F8417950708F4AC0101
:10184000C801840F951FC817D90710F0980103C06D
:101850009E01241B350B8091AB0182958695877084
:1018600060E009958091DA03882319F0C80168E0E7
:1018700016C0C80108C08530F1F030FF0BC08330BE
:10188000D1F0C801019669E00E94CA0886E0809301
:10189000DE0311C00115110571F0C80160E00E945E
:1018A000CA0809C08091660190916701BE010E943B
:1018B00027099C0102C020E030E0C901DF91CF91EF
:1018C0001F910F91FF90EF90DF900895CA32D105DC
:1018D00008F0BCCEF0CF80911804811181E008950A
:1018E000CF92DF92EF92FF920F931F93CF93DF93EC
:1018F000C0EFD3E030E0CC24DD2429C02A814B8125
:101900008091AA0190E0042F10E080179107D9F48C
:101910009091AB019217B9F48C818823A1F02091AA
:10192000AD0130E028503040F090AC01EE242E0D97
:101930003F1DE881F981892F942F60EA71E040EB27
:1019400051E0099531E00894C11CD11C2596809185
:10195000180490E0C816D9068CF2832FDF91CF913E
:101960001F910F91FF90EF90DF90CF9008950F930C
:101970001F93CF93DF938C01C0E0D0E0F801EC0F10
:10198000FD1F82E294E060814AE050E00E9468110D
:10199000C33029F082E294E06EE20E94B1102196F9
:1019A000C430D10559F7DF91CF911F910F91089560
:1019B000EF92FF920F931F939C017B0102E214E0D0
:1019C000C801B9010E947A11C7010E94B70CC80171
:1019D0000E94B9101F910F91FF90EF900895DC01C4
:1019E000FB0186E001900D928150E1F708959C0182
:1019F000FB0180819181A281B381F9018083918370
:101A0000A283B38308951F920F920FB60F921124F1
:101A10002F933F938F939F93AF93BF9380911D0418
:101A200090911E04A0911F04B091200430912104D4
:101A30000196A11DB11D232F2D5F2D3720F02D57AD
:101A40000196A11DB11D2093210480931D04909344
:101A50001E04A0931F04B093200480911904909158
:101A60001A04A0911B04B0911C040196A11DB11D84
:101A70008093190490931A04A0931B04B0931C0440
:101A8000BF91AF919F918F913F912F910F900FBE7A
:101A90000F901F9018958FB7F89420911D043091E6
:101AA0001E0440911F04509120048FBFB901CA0148
:101AB0000895789484B5826084BD84B5816084BDC6
:101AC00085B5826085BD85B5816085BDEEE6F0E0B7
:101AD000808181608083E1E8F0E010828081826013
:101AE0008083808181608083E0E8F0E08081816094
:101AF0008083E1EBF0E0808184608083E0EBF0E0C4
:101B0000808181608083EAE7F0E080818460808367
:101B10008081826080838081816080838081806811
:101B200080831092C1000895EF92FF920F931F934C
:101B3000CF93DF937B018C013FB7F8948091190418
:101B400090911A04A0911B04B0911C0426B5A89B87
:101B500005C02F3F19F00196A11DB11D3FBFBA2F3F
:101B6000A92F982F8827820F911DA11DB11D52E02A
:101B7000880F991FAA1FBB1F5A95D1F7EC0130C0DF
:101B80000E9490113FB7F8948091190490911A0423
:101B9000A0911B04B0911C0426B5A89B05C02F3F43
:101BA00019F00196A11DB11D3FBFBA2FA92F982F83
:101BB0008827820F911DA11DB11D32E0880F991F4A
:101BC000AA1FBB1F3A95D1F78C1B9D0B885E9340D3
:101BD000B8F20894E108F10801091109C851DC4F75
:101BE000E114F1040105110559F6DF91CF911F9120
:101BF0000F91FF90EF900895CF93DF93482F50E01F
:101C0000CA0187579D4FFC0134914B585D4FFA0133
:101C10008491882369F190E0880F991FFC01E95AAB
:101C2000FD4FA591B491FC01EF59FD4FC591D491A1
:101C3000662351F42FB7F8948C91932F90958923B4
:101C40008C93888189230BC0623061F42FB7F8949C
:101C50008C91932F909589238C938881832B8883F3
:101C60002FBF06C09FB7F8948C91832B8C939FBF96
:101C7000DF91CF910895482F50E0CA0183569D4FC0
:101C8000FC012491CA0187579D4FFC0194914B5848
:101C90005D4FFA013491332309F440C0222351F1FE
:101CA000233071F0243028F42130A1F0223011F5D6
:101CB00014C02630B1F02730C1F02430D9F404C06C
:101CC000809180008F7703C0809180008F7D80930A
:101CD000800010C084B58F7702C084B58F7D84BD2D
:101CE00009C08091B0008F7703C08091B0008F7DD4
:101CF0008093B000E32FF0E0EE0FFF1FEF59FD4F90
:101D0000A591B4912FB7F894662321F48C91909506
:101D1000892302C08C91892B8C932FBF0895DC01FD
:101D20005C968C915C97FD01E80FF11DE35AFF4F23
:101D300020815C968C915C9790E001968F739070F7
:101D40005C968C935C975696ED91FC915797208307
:101D50005096ED91FC9151978081806480835B96D1
:101D60009C915B975C968C915C97981739F452968E
:101D7000ED91FC91539780818F7D80830895DF9250
:101D8000EF92FF920F931F93CF93DF93EC017A01B1
:101D90008B01D22EE889F98982E08083403081EE80
:101DA000580780E0680780E07807A1F060E079E0FC
:101DB0008DE390E0A80197010E94B01121503040BE
:101DC00040405040569547953795279580E1203003
:101DD000380798F0E889F989108260E874E88EE1A4
:101DE00090E0A80197010E94B0112150304040407E
:101DF00050405695479537952795EC85FD8530835E
:101E0000EE85FF852083188EEC89FD89D082EA89D2
:101E1000FB89808180618083EA89FB898081886079
:101E20008083EA89FB89808180688083EA89FB89D5
:101E300080818F7D8083DF91CF911F910F91FF90E3
:101E4000EF90DF900895FC01218D828D30E0205CC1
:101E50003F4F281B31092F733070C9010895FC01D1
:101E6000918D828D981719F42FEF3FEF06C0828D68
:101E7000E80FF11D858D282F30E0C9010895DC01A0
:101E800059969C9159975A968C915A97981719F48C
:101E90002FEF3FEF10C05A968C915A97FD01E80F33
:101EA000F11D958D5A968C915A978F5F8F735A9624
:101EB0008C93292F30E0C9010895CF93DF93EC0173
:101EC000888D882361F419C08C9185FF0AC0E88948
:101ED000F989808185FF05C0CE010E948F0EAA89F5
:101EE000BB898C9185FD05C0E889F989808186FDD3
:101EF00004C00FB607FEE8CFF4CFDF91CF9108956D
:101F00000F931F93CF93DF93EC01062F9B8D8C8D46
:101F1000981791F5E889F989808185FF2DC0EE89B0
:101F2000FF896083E889F9898081806480831DC08E
:101F30000FB607FC08C0E889F989808185FF03C0D6
:101F4000CE010E948F0E8C8D181791F38B8DFE01A0
:101F5000E80FF11DE35AFF4F00831B8FEA89FB89CD
:101F600080818062808381E0888F81E090E0DF91D2
:101F7000CF911F910F9108951B8D1F5F1F73E3CFAA
:101F800088E490E1892B51F080E090E0892B31F0DA
:101F90000E944810882311F00E94000008951F92AB
:101FA0000F920FB60F9211242F938F939F93EF935D
:101FB000FF93E0913204F0913304808182FD16C0DA
:101FC000E0913804F0913904208190913B049F5FA7
:101FD0009F7380913C04981771F0E0913B04F0E00E
:101FE000EE5DFB4F258F90933B0405C0E0913804D4
:101FF000F0913904E081FF91EF919F918F912F91A2
:102000000F900FBE0F901F901895109225041092FC
:10201000240488EE93E0A0E0B0E08093260490933F
:102020002704A0932804B09329048AE791E09093B1
:1020300023048093220485EC90E090932F048093F6
:102040002E0484EC90E0909331048093300480EC73
:1020500090E0909333048093320481EC90E090936D
:1020600035048093340482EC90E09093370480939D
:10207000360486EC90E090933904809338041092F3
:102080003B0410923C0410923D0410923E040895CB
:1020900082E294E00E94230F20E0892B09F021E0E6
:1020A000822F08951F920F920FB60F9211242F9333
:1020B0003F934F935F936F937F938F939F93AF93D0
:1020C000BF93EF93FF9382E294E00E948F0EFF9103
:1020D000EF91BF91AF919F918F917F916F915F91A0
:1020E0004F913F912F910F900FBE0F901F90189519
:1020F000CF93DF930E94590D0E94AD01C0ECDFE049
:102100000E949A012097E1F30E94C00FF9CFCF926D
:10211000DF92EF92FF920F931F93CF93DF937C0197
:102120006B018A01C0E0D0E00FC0D6016D916D0156
:10213000D701ED91FC910190F081E02DC701099547
:10214000C80FD91F015010400115110571F7CE01BC
:10215000DF91CF911F910F91FF90EF90DF90CF9083
:102160000895DC01ED91FC910190F081E02D09953D
:102170000895EF92FF920F931F938C01DC01ED9174
:10218000FC910190F081E02D6DE009957C01D80172
:10219000ED91FC910190F081E02DC8016AE0099574
:1021A0009C012E0D3F1DC9011F910F91FF90EF90D3
:1021B0000895CF93DF93EC016115710519F420E0C8
:1021C00030E00FC0DB010D900020E9F71197A61B4E
:1021D000B70BE881F9810280F381E02DAD0109950B
:1021E0009C01C901DF91CF9108954F925F927F9238
:1021F0008F929F92AF92BF92CF92DF92EF92FF9217
:102200000F931F93DF93CF93CDB7DEB7A1970FB690
:10221000F894DEBF0FBECDBF2C01742ECB0122304F
:1022200008F42AE019A231E2C32ED12CCC0EDD1E17
:10223000822E9924AA24BB24672D752FA501940111
:102240000E94B01179018A01C801B701A50194016A
:102250000E949111472D461B0894C108D1084A30AD
:1022600014F4405D01C0495CF6014083E114F104BF
:102270000105110521F07E2C5F2DC801DDCFC201C3
:10228000B6010E94D910A1960FB6F894DEBF0FBE1A
:10229000CDBFCF91DF911F910F91FF90EF90DF9015
:1022A000CF90BF90AF909F908F907F905F904F9016
:1022B0000895DC012115310541F4ED91FC91019067
:1022C000F081E02D642F099508950E94F51008957E
:1022D000EF92FF920F931F939A01E62EFF2400E0E6
:1022E00010E0B801A7010E9459111F910F91FF90B2
:1022F000EF9008950E94D9100895EF92FF920F93E6
:102300001F937C010E94D9108C01C7010E94B91053
:10231000080F191FC8011F910F91FF90EF900895AA
:102320000895629FD001739FF001829FE00DF11D1F
:10233000649FE00DF11D929FF00D839FF00D749F3F
:10234000F00D659FF00D9927729FB00DE11DF91FEB
:10235000639FB00DE11DF91FBD01CF011124089548
:10236000A1E21A2EAA1BBB1BFD010DC0AA1FBB1F99
:10237000EE1FFF1FA217B307E407F50720F0A21B0B
:10238000B30BE40BF50B661F771F881F991F1A9478
:1023900069F760957095809590959B01AC01BD01A2
:1023A000CF010895EE0FFF1F0590F491E02D0994E1
:0423B000F894FFCFCF
:1023B4000A5B6261636B536F6F6E5D004661696CAB
:1023C400656420746F20616363657373204574686A
:1023D40065726E657420636F6E74726F6C6C657277
:1023E4000044484350206661696C65640049503A72
:1023F40020200047573A202000444E533A200074CE
:1024040069692D303141726475696E6F2D30300009
:102414006382536335015000010AFFFFFFFFFFFF92
:10242400FFFFFFFFFFFF00000000800F8710230F56
:062434003F0F2F0F5D0FAA
:00000001FF
